:020000040800F2
:10000000C006002035020008B9220008171D0008AC
:10001000B5220008971B0008A73800080000000060
:100020000000000000000000000000005D27000844
:100030009B1B00080000000041230008D528000891
:100040004F0200084F0200084F0200084F0200084C
:100050004F0200084F0200084F0200084F0200083C
:100060004F0200084F0200084F0200084F0200082C
:100070004F0200084F0200084F0200084F0200081C
:100080004F0200084F0200084F0200084F0200080C
:100090004F0200084F0200084F0200084F020008FC
:1000A0004F0200084F0200084F0200084F020008EC
:1000B000992C00084F0200084F0200084F02000868
:1000C0004F0200084F0200084F0200084F020008CC
:1000D0004F020008CD3500084F0200084F0200080B
:1000E0004F0200084F0200084F02000800F002F81B
:1000F00000F090F80AA090E8000C82448344AAF132
:100100000107DA4501D100F085F8AFF2090EBAE82F
:100110000F0013F0010F18BFFB1A43F0010318473B
:100120005039000070390000103A24BF78C878C1F7
:10013000FAD8520724BF30C830C144BF04680C60ED
:10014000704700000023002400250026103A28BF35
:1001500078C1FBD8520728BF30C148BF0B60704739
:100160006E2900F03582702900F0A783662903F01C
:10017000FB83652903F0F883672903F0F583612980
:1001800003F0F48303681B0A28BF41F0800169294A
:1001900000F0E281642900F0DF81752900F0DC8144
:1001A0006F2900F03583782900F07383E92900F086
:1001B000CF82E42900F0CC82F52900F0C982EF2932
:1001C00000F03283F82900F072830368DB0928BF4E
:1001D00041F08001632900F03E82732900F04382E0
:1001E000E32900F0A987F32900F0AE8700207047CB
:1001F0001FB500F0FFFF04000020002103F09EFB6C
:10020000401C60600020002103F082FBE0601FBD05
:1002100010B510BD00F0C0FF1146FFF7E9FF03F075
:100220006FFB01F099F803B4FFF7F2FF03BC03F092
:1002300057FB00000948804709480047FEE7FEE7F2
:10024000FEE7FEE7FEE7FEE7FEE7FEE7FEE7FEE786
:1002500004480549054A064B70470000D9280008A4
:10026000ED000008C0000020C0060020C0020020F1
:10027000C0020020704700007CB51D4616460C00E9
:10028000009001D02044401E074B7B442A4669461B
:100290000190304600F0B5F905461CB100206946D2
:1002A00000F0C2F928467CBDA50300000FB4044944
:1002B00010B503AA029800F0DBF910BC5DF814FB3E
:1002C0004800002070B50C460546012A05D0287864
:1002D000800600D5EA69002302E0012305E05B1CEB
:1002E000934202D2E05C0028F9D1A869E618C01A4E
:1002F000A861286A18442862284600F0F4F804E04F
:10030000D5E9012114F8010B9047B442F8D32846EF
:1003100000F0FFF870BD00002DE9F05F894604464B
:100320004FF0000ADFF874B1FB44C0F820A020466B
:10033000E1688847002874D0252806D0D4E9012137
:100340009047206A401C2062F1E700265F46204665
:10035000E16888472028054607DB312D05D278194A
:1003600010F8200C08B10643F1E7B00701D526F0DC
:100370000406C4F81CA00027C4F818A02A2D09D030
:10038000284603F0A6FA38B304EB8708303DC8F8D6
:10039000185019E059F8041B204604EB87029161BC
:1003A000E1688847012F054618D1E069002820DA66
:1003B00026F020061DE0D8F8180000EB800005EBC1
:1003C00040003038C8F818002046E16888470546E4
:1003D00003F07FFA0028EED1012F0AD02E2D08D18C
:1003E0002046E16888477F1C0546022F46F020061C
:1003F000C4DBA069002803DA404246F00106A06190
:10040000F00701D026F010066C2D0BD0682D09D016
:100410004C2D39D06A2D35D0742D35D07A2D33D06E
:1004200016E038E0E1682F4620468847B842054686
:1004300009D16C2F26D04FF48060E1680643204636
:100440008847054604E06C2F1AD04FF480700643AD
:100450000DB3A5F14100192802D8203546F40066F5
:100460004A462946204626604E46FFF779FE80B16F
:1004700001280BD0F61D26F0070000F1080956E709
:100480004020E4E78020D8E70020D6E706F1040901
:100490004DE7284652E7206ABDE8F09F4436000049
:1004A00010B5431C02E010F8011B71B18107FAD1AD
:1004B0004FF0013202C88C1A8C4314EAC211F9D0F1
:1004C000C01A0A0603D0C01E10BDC01A10BD0A040F
:1004D00001D0801E10BD0902FCD0401E10BD704727
:1004E00070477047704770B5044685690068C1065B
:1004F00001D5302600E02026C00707D070BDD4E922
:10050000012130469047206A401C20626D1EF6D5BE
:1005100070BD70B5044685690078C00707D170BD0D
:10052000D4E9012120209047206A401C20626D1EE2
:10053000F6D570BD09684A0501D540B27047C905B6
:10054000FCD500B2704709684A0501D5C0B27047B2
:10055000C905FCD580B270472DE9F041064600245C
:1005600010687529314616A510D0FFF7E3FF002863
:1005700002DA404213A507E031688A0701D512A5C7
:1005800002E0490704D511A5012401E0FFF7DBFFD4
:1005900000210A2206F1240709E0B0FBF2FCB0FBBF
:1005A000F2F302FB1C00303078541846491C002836
:1005B000F3D123462A463046BDE8F04100F0CDB9DC
:1005C000000000002D0000002B00000020000000B3
:1005D00011680268006A530501D508700AE0D30566
:1005E00001D5088006E0130603D5C217C1E9000251
:1005F00000E008600120704701694A1C0261087828
:10060000704700B58FB0CDE9013100210591054952
:100610007944CDE9031011466846FFF77DFE0FB01F
:1006200000BD0000E5FFFFFF0A6802F8010B0A6049
:100630007047D1E900239A4202D2531C0B6010701C
:10064000704710B5436913B1AFF3008001E0FFF7C5
:1006500039FE012010BD127800F124010A70002239
:100660004A700122EDE711684FF0FF32E9E7000020
:10067000074B70B50D467B44FFF7C3FF0446284681
:1006800000F066FD10B14FF0FF3070BD204670BD28
:100690006B3200002DE9FF5F15468A460446DFF8FD
:1006A000AC80F8440027D8E900103E46CDE90010A0
:1006B00010E03AF816106A4602A800F04DFD411C01
:1006C00007D02178890603D5E269391891420DD8FF
:1006D0000744761C2078800602D5E069B84205DD23
:1006E000AE42E6DB3AF816000028E2D1A069C01B52
:1006F000A0612046FFF7F7FED8E90010CDE9001011
:10070000002017E03AF818106A4602A800F024FD0D
:10071000B0F1FF3F81460BD000250DF1080B05E03D
:10072000D4E901211BF8050090476D1C4D45F7D316
:1007300008F10100B0428046E4DB206A38442062C0
:100740002046FFF7E6FEBDE8FF9F0000DE32000016
:100750002DE9F0418046D21D22F007020025D2E9A2
:100760000002F52915A614D0011E72F1000106DA67
:100770000023D0EB030063EB020211A608E0D8F8D7
:1007800000108B0701D50FA602E0490701D50EA680
:1007900001251146002408F1240704E000F098F830
:1007A00030323A55641C50EA0102F7D12B463246EA
:1007B00021464046BDE8F04100F0CFB800000000FF
:1007C0002D0000002B0000002000000030B40021AC
:1007D00000F1240408E002F00705D208303542EAAF
:1007E0004372DB086554491C52EA0305F3D10468DF
:1007F000002310A2250708D504F020040C4304D0E0
:10080000C46901230CA2641EC46130BC00F0A5B809
:1008100010B5044621461068FFF795FE02462046B3
:10082000BDE810400023D1E7D21D22F00701D1E935
:100830000023CBE70000000030000000F0B40D46BC
:100840000188090502D5214C7C4402E01F4C7C4400
:100850000E34002100F1240608E002F00F0712090F
:10086000E75D42EA03721B097754491C52EA030709
:10087000F3D102780023120704D5702D06D009B1F8
:10088000022311342246F0BC00F067B80123103473
:10089000F8E770B504460D4621461068FFF753FE91
:1008A000024629462046BDE870400023C6E7D21D17
:1008B00022F00703D3E90023C0E70368126843F07E
:1008C000200303600823C3610023B7E74031000021
:1008D00030B5B0F10A024FEA900E71F100034EEA12
:1008E000817EB0EB0E0061EB91014FEA101E4EEAE3
:1008F000017E10EB0E0041EB11114FEA102E4EEA73
:10090000016E10EB0E0041EB11214FEA104E4EEA42
:10091000014E10EB0E0041EB1141401841F1000176
:100920004FEAD00040EA41704FEAD10110EB800558
:100930004FEA810444EA907444EB01046D1944EBDE
:100940000404521BA3414FF0000348BF0A3200D5F4
:1009500030BD401C41F1000130BD2DE9F0470D468E
:1009600099469246044600F124080168880604D599
:10097000E06921F01001216000E00120A84201DDC2
:10098000471B00E00027A1697A1902EB0900081A49
:10099000A0612078C00602D42046FFF7A4FD0026FF
:1009A00008E0D4E901211AF806009047206A401CAB
:1009B000761C20624E45F4DB2078C0060AD520461E
:1009C000FFF791FD06E0D4E9012130209047206A2D
:1009D000401C2062381EA7F10107F4DC07E0D4E9CF
:1009E000012118F805009047206A401C2062281E4B
:1009F000A5F10105F3DC2046FFF78BFD207800060A
:100A000002D50220BDE8F0870120FBE770472DE901
:100A1000FF4F0C461E464FF0FF378BB0D2E9000166
:100A2000DDF860800A908A46C1F30A5505B93D4653
:100A3000002108464FF00000BAF1000F00F440001A
:100A400005DA00EB80004FF4400101EA50004FEA64
:100A50009059B9F1010F00DDB9460A9850EA4A00F1
:100A60000ED044F61050A5F2FF3545432F14B8F1CF
:100A7000000F1ED07542291E1EDDC9F100021CE0C8
:100A8000B8F1010F4FF0000001D0302103E0F24334
:100A900005E02154401CB042FBDB3046002200211F
:100AA00021540B99C1F80880C1E900200FB0BDE8BE
:100AB000F08FBD1B6D1CDEE74A4600DA694206A8CE
:100AC00000F0DCFB06AB93E8070003AB83E807000C
:100AD00050460A9900F08AFC8DE80700A0F5005006
:100AE0001F3800900398002D09DD42F21F014A468D
:100AF000084403A90390684600F0E9FE08E0A0F569
:100B000000504A461F3803A90390684600F0F3FEE0
:100B10008DE807000004000C03D04FF0FF304108BF
:100B200000E01046B8F1000F03D0002200921546F5
:100B30001EE0751E05D4FFF7CBFE303262556D1EE8
:100B4000F9D5B3460122084302D000227F1C04E0FD
:100B50002078302801D100227F1E002A099786D0F4
:100B60001DE0112D07DAFFF7B3FE303262556D1C20
:100B700050EA0102F5D1084302D00098C8B10EE056
:100B80000021681E05E0235C625C63542254401E11
:100B9000491C8142F7DBAB46A81B401E0990002090
:100BA00004F80B000B98099AC0F80880C0E9002BE4
:100BB0007CE711264FF0000859E72DE9F04F8846F1
:100BC0000446D21D22F0070191B0D1E90001CDE920
:100BD0000A0102F06AFE02460B98C00F01D02D20D8
:100BE00007E02068810701D52B2002E0202101EADF
:100BF000C000032A099001D0072A05DB03464146BD
:100C0000204600F0FBFA0BE12078800601D5E06970
:100C100000E00620B8F1650F814606D0B8F1660FF6
:100C200018D0B8F1670F70D131E00020B9F1110F81
:100C3000009001DB112301E009F101030AAA01A9D7
:100C40000CA8FFF7E4FEDDE90C70002609F10105B0
:100C5000834647E001204B4600904FF000470AAA28
:100C600001A90CA8FFF7D3FEDDE90DB00C995D4694
:100C7000002610B909F101000D18B9EB050003D4E5
:100C8000C0F1FF3609F10105A5EB09002BE0B9F130
:100C9000010F01DA4FF001090020B9F1110F0090A6
:100CA000484601DD112300E003460AAA01A90CA869
:100CB000FFF7ADFEDDE90C704D4600268346207837
:100CC00000070AD4AB4500DA5D4601A8012D04DD1A
:100CD000411911F8011C302907D04F4502DA17F1EC
:100CE000040F04DA012082460FE06D1EEEE7002FAC
:100CF00002DCED1B3E4403E0781CA84200DD7D1CB5
:100D0000B81B00F1010A4FF000472078000703D418
:100D1000AA4501DB4FF0FF3A0021B7F1004F0DF17A
:100D200043088DF8431024D002202B23002F01DA32
:100D30007F422D230A21021EA0F1010000DC5FB1D9
:100D400097FBF1FC97FBF1F201FB1C7C17460CF1C1
:100D5000300C08F801CDEEE7A8F1010003702188FE
:100D6000090501D5452100E06521A0F1010800F841
:100D7000011C09980FA9A1EB0807FF1D00B1012074
:100D8000411901EBEA70A1693844081A401EA061BC
:100D90002078C00602D42046FFF7A5FB099828B1A9
:100DA000D4E901219047206A401C20622078C006C7
:100DB00022D52046FFF797FB1EE0002E04DBB3454B
:100DC00002DD01A8805D00E03020D4E901219047D8
:100DD000206A401C2062761CAAF101005FEA000A2A
:100DE0000AD100F007FAC0680168405CD4E901212B
:100DF0009047206A401C2062281EA5F10105DCDC1A
:100E000007E0D4E9012118F8010B9047206A401C43
:100E10002062381EA7F10107F3DC2046FFF779FBBB
:100E2000032011B043E600002DE9F04F04460D46C3
:100E3000D21D22F0070089B0D0E90092484617463B
:100E4000394602F032FD0246F80F01D02D2307E0AB
:100E50002068810701D52B2302E0202101EAC0038D
:100E60008DF820300BB1012000E00020032A8246DB
:100E700001D0072A04DB2946204600F0BFF93DE1F6
:100E80002078800601D40D2500E0E569C7F30A56F5
:100E90000D2D49DA00214FEA175B08464FF000009C
:100EA000002F00F4400007DA00EB80004FF440010F
:100EB00000EBD07001EA60008115012901DD4FF0DF
:100EC000FF3100224FEA850CBCF1180F06D3134600
:100ED000ACF118004FF08052C24003E04FF4801391
:100EE00023FA0CF30CF10C0CBCF1200F04D3ACF181
:100EF000200C09FA0CF001E007FA0CF000294FF081
:100F0000004801DD18B90FE00ED140450CD319EBB4
:100F100002095F4121B9404502D19F4329EA0209F4
:100F2000BBEB175F00D0761C2088000502D57B48FC
:100F3000784402E079487844193808AA302302F846
:100F40000A30037C0AF10101002E0AF1020A53540F
:100F50006A4602DC4FF0300101E04FF031014FF002
:100F600001088DF8001002D0A6F2FF3603E059EA1E
:100F7000470100D06A4E002D02DC2178090704D514
:100F80004FF002082E218DF80110C44600210BE01D
:100F9000C7F303433F01C35C491C6D1E02F80830D0
:100FA000052908F1010801DA002DF1DC00210CE02F
:100FB00000EB1973491C1B786D1E082902F80830D4
:100FC0004FEA091908F1010801DA002DF0DC217857
:100FD000890602D514E0A8F10108E04505DD02EB21
:100FE000080111F8011C3029F5D0B8F1000F07DD18
:100FF00002EB080111F8011C2E2901D1A8F101080A
:10100000002D05DD3E2102F808106D1E08F10108D3
:10101000407C002E02F8080008F1010804DA2D20B7
:10102000764202F8080002E02B2002F808000A21AC
:101030004FF47A70864208F101080BDB96FBF0F35F
:10104000303302F8083096FBF0F308F1010800FB9A
:10105000136601E0642E0CDB642096FBF0F3303362
:1010600002F8083096FBF0F308F1010800FB136664
:1010700001E00A2E06DB96FBF1F0303002F80800A2
:1010800008F1010896FBF1F001FB1060303002F826
:101090000800A16908F1010808EB050202EB0A004B
:1010A000081AA0612078C00602D42046FFF71BFA78
:1010B000216A08AE01EB0A00206204E0D4E90121B4
:1010C00016F8010B9047BAF1010AF7D22078C00652
:1010D00002D52046FFF707FA6E4609E016F8010B25
:1010E0003E280FD0D4E901219047206A401C20629D
:1010F000B8F10108F2D22046FFF70BFA09B003203D
:10110000BDE8F08F206A2844206203E0D4E9012181
:10111000302090476D1EEBD3F8E70000932A0000C3
:1011200002FCFFFF10B5436913B1AFF3008001E08B
:10113000FFF7B0FA012010BD128800F1240182846B
:101140000022C2840122EDE711684FF0FF32E9E787
:10115000007B00F08000704770B516460C460546CF
:1011600000F040F8036893F80101012806D0FF2C35
:101170000FD8185D68B101202C7070BDD3F807013D
:101180003246214603F2071303442846BDE8704067
:1011900018474FF0FF3070BD754600F0E3F8AE46DB
:1011A00005006946534620F00700854618B020B573
:1011B000FFF74EF8BDE820404FF000064FF0000763
:1011C0004FF000084FF0000B21F00701AC46ACE8EF
:1011D000C009ACE8C009ACE8C009ACE8C0098D465C
:1011E0007047000010B500F005F8001D10BD00BFED
:1011F0004D270000004870477C0000202DE9F04199
:101200001F46044603260168072A01F4006004DB38
:1012100008B116A505E016A503E008B115A500E084
:1012200015A521F010002060A069C01EA0610FB1BB
:10123000401EA0612046FFF756F94FB1D4E90121C5
:1012400038469047206A401C2062C01C206206E09D
:10125000206AFAE7D4E9012115F8010B9047761EC0
:10126000F8D22046FFF755F9BDE8F0814E414E0017
:101270006E616E00494E4600696E66002DE9F047CA
:10128000814616468AB0334878440DC88DE80D0073
:1012900030487844801C03AC0DC884E80D0041F64A
:1012A0009B300844372190FBF1F290FBF1F5A5F15A
:1012B000800501FB12041B3C02D56442012000E0C2
:1012C0000020DFF890A080460027FA44AAF1BE0A69
:1012D0000DE0E00709D03246684607EB47010AEB0C
:1012E000810100F008FB8DE8070064107F1C002CD2
:1012F000EFD1184F7F44AC3F18E0E80714D007EB5C
:1013000004100DF1180A90E80E008AE80E00C0687B
:10131000F04201D198190890324606A903A800F0BE
:10132000EAFA03AB83E807006D10641C002DE4D1DA
:1013300032466946B8F1000F03A802D000F0C7FAA0
:1013400001E000F0D8FAC9E90001C9F808200AB0A4
:10135000BDE8F087CC2700000446AFF300802046AC
:10136000FEF761FF004870475C0000204FF0013C31
:1013700050F8042B51F8043B9A4221D1A2EB0C0304
:10138000934313EACC1317D150F8042B51F8043BC4
:101390009A4215D1A2EB0C03934313EACC130BD161
:1013A00050F8042B51F8043B9A4209D1A2EB0C03EC
:1013B000934313EACC13DBD04FF00000704700BF1B
:1013C000D01A01BAB1FA81F101F0180122FA01F044
:1013D000CB40C1F12001DBB2C0B2C01A2CFA01F33C
:1013E000D11A914311EAC311E6D170475FEA400C6C
:1013F00008BF91F0000F4FEA8C234FEAC12243EA65
:1014000051514FEA1C5018BF00F5F0404FEA300030
:1014100018BF41F000415FEA6C5C00F02980BCF12C
:10142000FF3F08BF40F080407047130C06BF120416
:101430004FF0100C4FF0000C130E04BF12020CF111
:10144000080C130F04BF12010CF1040C930F04BF1E
:1014500092000CF1020CD30F04BF52000CF1010CEE
:1014600011464FF00002A0F11F00A0EB0C007047E6
:1014700011F0004F08BF704731F000413FF4D5AF85
:101480000B0C06BF09044FF0100C4FF0000C0B0EB4
:1014900004BF09020CF1080C0B0F04BF09010CF189
:1014A000040C8B0F04BF89000CF1020CCB0F04BF9E
:1014B00049000CF1010CCCF12003A0EB0C0022FA46
:1014C00003F302FA0CF241EA030100F10100704754
:1014D00020F07F4C80EA030023F07F47ACEB07034A
:1014E00003F57C5300F0004003F1FF032DE9804930
:1014F0004FEA154B09B44FEA144325EA0B4E24EA90
:1015000003480FF2042606EB132749083E785FEAEA
:10151000320203FB0667C7F5000707FB06F64FEA32
:1015200054374FEAD64606F1020607FB066CCCF1AB
:10153000005C4FEA1C472CEA074C07FB06F40CFB47
:1015400006F504EB15464FEA961634BF00204FF01F
:1015500000404FEAD13706FB07FC4FEA1C4C0CFB5E
:101560000BF7D21B03FB0CF761EB07010CFB0EF72B
:10157000B0EB074072EB17420CFB08F734BFA2EB4D
:101580000742B2EB074261EB17414FEA0C444FEAC6
:10159000910706FB07FC4FEA1C4C0CFB0BF7B0EB6A
:1015A000C74072EB573203FB0CF734BFA2EBC742C4
:1015B000B2EBC74261EB57310CFB0EF7B0EBC70043
:1015C00072EB57720CFB08F734BFA2EBC702B2EB09
:1015D000C70261EB5771039F4FEA816141EA9211A3
:1015E00004EBCC044FEAD1374FEA826206FB07FCDA
:1015F00042EA90124FEA80604FEA1C4C0CFB0BF75A
:10160000D21B03FB0CF761EB07010CFB0EF7B0EBF1
:10161000074072EB17420CFB08F734BFA2EB0742FE
:10162000B2EB074261EB17414FEA8C554FEA910745
:1016300004EB9C2406FB07FC4FEA1C4C0CFB0BF74D
:10164000B0EBC74072EB573203FB0CF734BFA2EB91
:10165000C742B2EBC74261EB57310CFB0EF7B0EB60
:10166000C70072EB57720CFB08F734BFA2EBC7023E
:10167000B2EBC70261EB577115EB4C254FEA816164
:1016800041EA92114FEA82624FEAD13742EA901260
:1016900006FB07FC44F100044FEA80604FEA1C4C53
:1016A0000CFB0BF7D21B03FB0CF761EB07010CFBE8
:1016B0000EF7B0EB074072EB17420CFB08F734BF94
:1016C000A2EB0742B2EB074261EB174115EB1C1589
:1016D0004FEA813141EA92414FEA823242EA904236
:1016E0004FEA80304FEA0C7644F1000448EA0343A5
:1016F0004EEA0B484FF0000EB2EB080C71EB0307FB
:1017000024BF624639464EEB0E0E4FF0000B001818
:10171000524149414BEB0B0BB2EB080C71EB030749
:101720007BF1000B24BF624639464EEB0E0E4FF0A4
:10173000000B0018524149414BEB0B0BB2EB080C6C
:1017400071EB03077BF1000B24BF624639464EEB79
:101750000E0E51EA020718BF46F0010616EB0E7690
:1017600055F1000254F1000103D5BDE88901BDE83F
:101770000088BDE88901BDE80048B619524141EB37
:101780000101A3F10103704780807F7E7D7C7B7A1D
:101790007978777676757473727171706F6E6E6D1D
:1017A0006C6C6B6A6A6968686766666564646363C3
:1017B00062616160605F5F5E5E5D5D5C5C5B5B5A49
:1017C0005A595958585757565655555554545353B6
:1017D00052525251515050504F4F4F4E4E4D4D4D11
:1017E0004C4C4C4B4B4B4A4A4A494949484848475C
:1017F000474747464646454545444444444343439A
:101800004342424242414141002B26D4770021D03D
:101810001CB54FEA370703B44FF010004FF010012A
:101820004FF000000FBCBDE810400BF1010BBBF105
:10183000010F08BF5FEA170722BF12F1010211F181
:1018400001014FF0004143F1000300F0004043EA82
:1018500000007047F9D35708DAE746EA064613F165
:10186000400F4FEA16461FDD13F1200FDFBF16436E
:101870000A46002120335B42C8D0C3F1200746EA64
:10188000064602FA07F74FEA164646EA0706C3F18C
:10189000200722FA03F201FA07F721FA03F14FF0C9
:1018A000000342EA0702B1E746EA020646EA0646B4
:1018B0004FEA164646EA0106BCBF46EA0646360C23
:1018C0004FF000034FF000024FF000019EE72DE9BA
:1018D000C048934630B491E8380007C831EA400C5C
:1018E00048BF34EA430C03D5FFF7F2FDFFF78CFF46
:1018F000F0BCBDE800882DE9C048934630B491E8BB
:10190000380007C810F0804F08BF13F0804F03D194
:1019100000F005F8FFF778FFF0BCBDE8008820F084
:101920007F4780EA030023F07F4C07EB0C03A3F50D
:101930007C5300F00040A3F1FE0392F0000F00F092
:10194000B38095F0000F00F077802DE901494FEA50
:1019500011404FEA144621EA004800FB06FC24EA45
:10196000064708FB06F607FB08F800FB07F718EB2D
:1019700006484CEB164C4FEA124B18EB07484FEA5F
:1019800015464CEB174022EA0B4E0BFB06FC25EAF2
:1019900006470EFB06F607FB0EFE0BFB07F71EEBDA
:1019A000064E4CEB164C4FF000061EEB074E4CEB70
:1019B000174B18EB0B0840F1000018EB0E0B58EB1F
:1019C000000840F100008F1A4FF000013CBFC943EE
:1019D000661B14BFB5EB040C00213CBFC943F61BCA
:1019E0004FEA17444EEA8E0E27EA04454FEA1C4799
:1019F00004FB07622CEA074C05FB07F70CFB05F616
:101A000004FB0CFC16EB074642EB174216EB0C46A8
:101A100042EB1C421BEB060658EB0202414146EA30
:101A20009E0601D5BDE80189B619524141EB01017D
:101A3000A3F10103BDE801894FEA14454FEA1147BC
:101A400024EA054621EA074C05FB07F406FB07F7E5
:101A50000CFB06F105FB0CFC11EB074144EB1744B2
:101A60004FEA124711EB0C4144EB1C4422EA074CAD
:101A700005FB07F206FB07F70CFB06F605FB0CFC63
:101A800016EB074642EB174216EB0C4642EB1C45A1
:101A90006A1854F1000148BF7047B619524141EB32
:101AA0000101A3F10103704795F0000F37D04FEA11
:101AB00011424FEA144721EA024624EA074C02FB8E
:101AC00007F106FB07F70CFB06F402FB0CFC14EB1A
:101AD000074441EB17414FEA154714EB0C4441EB27
:101AE0001C4125EA074C02FB07F506FB07F70CFB38
:101AF00006F602FB0CFC16EB074645EB174516EB0A
:101B00000C4645EB1C42121951F1000148BF7047C9
:101B1000B619524141EB0101A3F1010370474FEAAD
:101B200014454FEA114724EA054621EA074C05FB14
:101B300007F106FB07F70CFB06F24FF0000605FB6A
:101B40000CFC12EB074241EB174112EB0C4251EB3C
:101B50001C4148BF7047921841EB0101A3F10103FA
:101B6000704710B500F00EFC472140F2CF7001F035
:101B70000DFA4FF4A06000F0D9FB4FF4E13001F012
:101B800039FD47214FF6FF7000F0F6FF00F0C6F870
:101B900000F01EF810BD00BFFEE770470549096858
:101BA00021F01001034A11601146096801431160D8
:101BB000704700000020024001460020034A1068E0
:101BC00000F0380008431060704700000020024019
:101BD00008B50121082000F0C5FB3020ADF8000059
:101BE00010208DF8030001208DF80200694602489C
:101BF00000F004F808BD0000000C01402DE9F041A0
:101C0000024600250026002000230024002791F82A
:101C100003C00CF00F0591F803C00CF0100CBCF1E0
:101C2000000F03D091F802C04CEA050591F800C0FE
:101C3000BCF1000F31D0146800202BE04FF0010CF4
:101C40000CFA00F3B1F800C00CEA03069E4220D162
:101C500083004FF00F0C0CFA03F7BC4305FA03FCAA
:101C60004CEA040491F803C0BCF1280F06D14FF0F0
:101C7000010C0CFA00FCC2F814C00AE091F803C091
:101C8000BCF1480F05D14FF0010C0CFA00FCC2F872
:101C900010C0401C0828D1D31460B1F800C0BCF1BA
:101CA000FF0F34DD546800202EE000F1080C4FF0E7
:101CB000010808FA0CF3B1F800C00CEA03069E42D2
:101CC00021D183004FF00F0C0CFA03F7BC4305FA47
:101CD00003FC4CEA040491F803C0BCF1280F05D1C1
:101CE00000F1080C08FA0CF8C2F8148091F803C04F
:101CF000BCF1480F07D100F1080C4FF0010808FAB9
:101D00000CF8C2F81080401C0828CED35460BDE8FF
:101D1000F0814161704700BFFEE7000008B5012176
:101D2000082000F01FFB4FF48060ADF80000032096
:101D30008DF8020014208DF8030069460A48FFF769
:101D40005DFF4FF40060ADF8000003208DF8020045
:101D500014208DF8030069460348FFF74FFF03A0E6
:101D600001F098FC08BD0000000C01400D0A20495C
:101D700032435F4D50553630353020496E697420FE
:101D8000436F6D706C6574650000000010B54FF412
:101D900080600E490860042000F01AF94FF40060DA
:101DA0000A49091F0860042000F012F94FF480600E
:101DB0000649091F0860042000F00AF94FF480600A
:101DC00002490860042000F003F910BD140C014022
:101DD00070B508250024280217490860042000F087
:101DE000F7F819E04FF480601349091D08600420DA
:101DF00000F0EEF800BF4FF480600F490860042047
:101E000000F0E6F86006040E0B480838006800F49D
:101E1000006008B144F001042800A5F10101CDB231
:101E2000E0D14FF480600449091D0860042000F0EF
:101E3000CFF8204670BD0000100C014010B54FF4E3
:101E400080601C490860042000F0C2F84FF4006074
:101E50001849091F0860042000F0BAF84FF48060A8
:101E60001449091F0860042000F0B2F811480C382A
:101E7000006808B9012000E0002000F4006008B10B
:101E8000002010BD4FF400600A490860042000F0F3
:101E90009FF808480C38006800F4006008B1002082
:101EA000EFE74FF4006003490860042000F090F869
:101EB0000120E6E7140C014010B54FF480600E4994
:101EC0000860042000F084F84FF400600A490860BC
:101ED000042000F07DF84FF480600749091F086076
:101EE000042000F075F84FF400600349091F0860F2
:101EF000042000F06DF810BD140C014010B54FF433
:101F0000806016490860042000F062F84FF4006019
:101F10001249091F0860042000F05AF84FF480604D
:101F20000E49091F0860042000F052F80B480C38D5
:101F3000006800F4006040B14FF480600749086019
:101F4000042000F045F8002010BD4FF480600349E4
:101F50000860042000F03CF80120F5E7140C014073
:101F600070B50446082523E04FF4806017490860E7
:101F7000042000F02DF804F0800040B14FF4006020
:101F80001249091F0860042000F022F806E04FF40F
:101F900000600E490860042000F01AF86006040E84
:101FA0004FF480600949091F0860042000F010F810
:101FB0002800A5F10101CDB2D6D14FF480600349CC
:101FC0000860042000F004F870BD0000140C01400B
:101FD00000E0401E0028FCD17047000010B57520BD
:101FE00000F032FC682804D01AA001F053FB002056
:101FF00010BD20A001F04EFB00216B2000F04AFC38
:1020000044F62060FFF7E4FF0021192000F042FCB5
:1020100044F62060FFF7DCFF00211A2000F03AFCB4
:1020200044F62060FFF7D4FF18211B2000F032FC9B
:1020300044F62060FFF7CCFF1F211C2000F02AFC93
:1020400044F62060FFF7C4FF11A001F023FB01203C
:10205000CEE700000D0A204D505536303530204176
:10206000626E6F726D616C204F7065726174696F22
:102070006E0000000D0A204D505536303530204E90
:102080006F726D616C204F7065726174696F6E0064
:102090000D0A204D50553630353020496E6974692F
:1020A000616C697A6174696F6E20436F6D706C65E5
:1020B0007465000010B565480068654908606549A9
:1020C0000860654908606549086065480068A0F2D5
:1020D000DC506349086063480068A0F2DC50614945
:1020E00008605F4800680A2817DD584800685C49A6
:1020F0000968401A5C4909684843554908605749CE
:1021000008605248006856490968084456490968F9
:102110004843514908604F4908605148006810F130
:102120000A0F17DA494800684D490968401A4E49B4
:1021300009684843464908604849086043480068C0
:1021400047490968084448490968484342490860C2
:1021500040490860434800680A2817DD3B4800688A
:1021600040490968401A40490968484339490860AC
:102170003A490860354800683A49096808443A49CC
:1021800009684843344908603149086035480068A7
:1021900010F10A0F17DA2D48006832490968401A11
:1021A0003149096848432B4908602C490860274891
:1021B00000682C49096808442B49096848432649A6
:1021C00008602349086021480068B0F5617F0FD29C
:1021D0000021264801F06AF90021244801F068F93D
:1021E0000021224801F066F90021204801F064F93D
:1021F0001A48008881B21D4801F058F91648008835
:1022000081B21A4801F054F91248008881B2174887
:1022100001F050F90E48008881B2144801F04CF9E1
:102220000E48016812A001F035FA0B48016815A0AC
:1022300001F030FA0748016816A001F02BFA0448B3
:10224000016818A001F026FA10BD0000300000203F
:10225000200000201C000020180000201400002096
:10226000280000202C00002024000020000800404E
:102270000D0A204D315F4F75747075743D256409EA
:10228000000000004D325F4F75747075743D256419
:10229000090000004D335F4F75747075743D2564FF
:1022A000090000004D345F4F75747075743D2564EE
:1022B0000900000000BFFEE77047000070B5002174
:1022C00000230F22C47804B3154C246804F4E0649E
:1022D000C4F5E064210AC1F10403CA40447804FA59
:1022E00003F184781440214309010E4C0678A1556E
:1022F000047804F01F050124AC4005786D11AD0091
:1023000005F1E025C5F8004109E0047804F01F0557
:102310000124AC40044D0678761145F8264070BD86
:102320000CED00E000E400E080E100E00249014340
:10233000024A1160704700000000FA050CED00E051
:102340007047000029B1064AD2690243044BDA61A2
:1023500004E0034AD2698243014BDA61704700000E
:102360000010024029B1064A92690243044B9A6167
:1023700004E0034A92698243014B9A61704700006E
:102380000010024010B500F02FF84FF4803000F03C
:10239000EDF800F049F90446012C24D14FF4E01186
:1023A000000400F027F9002000F0D4F8A00200F0AB
:1023B00003F9002000F00CF90220FFF7FDFB1020CC
:1023C000FFF7ECFB012000F00FF900BF392000F00F
:1023D0009BF80028FAD0022000F01AF900BF00F0A4
:1023E000B1F80828FBD110BD0F48006840F001008B
:1023F0000D490860084640680C4908400A49486091
:10240000084600680A49084007490860084600680D
:1024100020F4802008600846406820F4FE004860F0
:102420004FF41F0088607047001002400000FFF862
:10243000FFFFF6FE30B500210022002400232D4DC1
:102440006D6805F00C0121B1042905D0082923D1BC
:1024500005E0294D056022E0274D05601FE0254D70
:102460006D6805F47012234D6D6805F48034022503
:1024700005EB92421CB9214D554305600BE01D4D03
:102480006D6805F400351DB11C4D5543056002E033
:10249000194D5543056002E0174D056000BF00BFB0
:1024A000144D6D6805F0F0010909154D6B5C056868
:1024B000DD4045600F4D6D6805F4E061090A104D7F
:1024C0006B5C4568DD4085600A4D6D6805F46051C0
:1024D000C90A0B4D6B5C4568DD40C560054D6D68F4
:1024E00005F44041890B074D6B5CC568B5FBF3F5FE
:1024F000056130BD0010024000127A0000093D0065
:10250000000000201000002010B50146002200232A
:1025100000204A11012A02D1094C236806E0022A50
:1025200002D1074C236A01E0054C636A01F01F02E7
:10253000012494401C400CB1012000E0002010BD9B
:10254000001002400248406800F00C007047000094
:102550000010024001460020034A506820F0F000BD
:10256000084350607047000000100240114909689C
:1025700021F480310F4A11601146096821F480214D
:102580001160B0F5803F03D0B0F5802F0ED106E08A
:102590000849096841F48031064A116007E005499D
:1025A000096841F4A021034A116000E000BF00BFA8
:1025B000704700000010024001460020034A5068A6
:1025C00020F4E060084350607047000000100240B3
:1025D00001460020034A506820F4605040EAC100E0
:1025E00050607047001002400149086670470000C3
:1025F0000000424202460020044B586820F47C1040
:1026000042EA01031843014B586070470010024032
:1026100001460020034A506820F003000843506040
:10262000704700000010024038B5002000900024E0
:10263000002500BF3120FFF767FF05460098401CCA
:1026400000900098B0F5A06F01D0002DF2D031209D
:10265000FFF75AFF08B1012400E00024204638BDEE
:102660003248007800F0800098B13048007800F0DF
:102670003F002F49086008460088000408600846AB
:1026800000682C4909880844294908600020274926
:1026900008702948007800F0800098B1264800783A
:1026A00000F03F00254908600846008800040860E3
:1026B000084600682249098808442049086000202B
:1026C0001D4908701F48007800F0800098B11D482F
:1026D000007800F03F001C490860084600880004AC
:1026E00008600846006819490988084416490860C6
:1026F0000020144908701648007800F0800098B156
:102700001348007800F03F0012490860084600882E
:1027100000040860084600680F49098808440D490C
:10272000086000200A490870704700003800002047
:10273000280000203A0000203C0000202C0000204F
:102740003E00002040000020300000204200002019
:10275000440000203400002046000020704710B5DF
:1027600000F002F810BD00000CB5002001900090B0
:102770003348006840F480303149086000BF304879
:10278000006800F4003000900198401C019000980F
:1027900018B90198B0F5A06FF1D12948006800F48C
:1027A000003010B10120009001E00020009000985E
:1027B000012843D12348006840F0100021490860F7
:1027C0000846006820F0030008600846006840F0F2
:1027D000020008601A484068194948600846406885
:1027E00048600846406840F4806048600846406899
:1027F00020F47C1048600846406840F4E8104860C7
:102800000846006840F08070086000BF0C4800680F
:1028100000F000700028F9D00948406820F003005B
:10282000074948600846406840F00200486000BF21
:102830000348406800F00C000828F9D10CBD0000E6
:10284000001002400020024070B50446FFF7F6FA7F
:1028500008B9002070BDD020FFF782FBFFF74EFBC8
:1028600018B9FFF729FB0020F4E72046FFF778FBB3
:10287000FFF744FBFFF7E2FAD120FFF771FBFFF708
:102880003DFBFFF7A5FA0546FFF780FAFFF714FBBB
:102890002846DFE770B505460C46FFF7CFFA08B9C2
:1028A000002070BDD020FFF75BFBFFF727FB18B9B6
:1028B000FFF702FB0020F4E72846FFF751FBFFF784
:1028C0001DFB2046FFF74CFBFFF718FBFFF7F4FA60
:1028D0000120E6E77047000010B51348006840F09B
:1028E00001001149086008464068104908400E4937
:1028F0004860084600680E4908400B4908600846D1
:10290000006820F4802008600846406820F4FE003B
:1029100048604FF41F008860FFF721FF4FF0006010
:102920000449086010BD0000001002400000FFF8DC
:10293000FFFFF6FE08ED00E0F0B50C46154600225C
:102940000021068C4FF6FE773E400684028B018CF8
:102950004FF60C7632407E1C06EA03162E433243B5
:10296000104EB0420ED0104EB0420BD0B0F1804F9E
:1029700008D00E4EB04205D00D4EB04202D00D4EE2
:10298000B04206D14FF6FD76314044F001063143A6
:1029900005E04FF6F576314044F0010631430283FD
:1029A0000184F0BD002C01400034014000040040CF
:1029B00000080040000C0040F0B50C46154600220F
:1029C00000210026078C4FF6EF7C07EA0C070784EE
:1029D000028B018C4FF6FF7707EA041640F6FF479B
:1029E0003A404FF6FF7707EA03373A434FF6FF774F
:1029F00007EA05273A43114FB8420ED0104FB842AC
:102A00000BD0B0F1804F08D00E4FB84205D00E4F1A
:102A1000B84202D00D4FB84206D14FF6DF773940A9
:102A200046F01007394305E04FF65F77394044F030
:102A30001007394302830184F0BD0000002C0140DF
:102A4000003401400004004000080040000C004039
:102A5000F0B50C461546002200210026078C4FF6E3
:102A6000FF6C07EA0C070784828B018C4FF6FF7717
:102A700007EA04264FF60C773A404FF6FF7707EA4D
:102A800003172F433A43114FB8420ED0104FB842AC
:102A90000BD0B0F1804F08D00E4FB84205D00E4F8A
:102AA000B84202D00D4FB84206D14FF6FF57394019
:102AB00046F48077394305E04FF2FF57394044F43C
:102AC0008077394382830184F0BD0000002C0140EF
:102AD000003401400004004000080040000C0040A9
:102AE000F0B50C461546002200210026078C4EF654
:102AF000FF7C07EA0C070784828B018C4FF6FF7777
:102B000007EA043640F6FF473A404FF6FF7707EAF8
:102B100005273A434FF6FF7707EA03373A43114F49
:102B2000B8420ED0104FB8420BD0B0F1804F08D051
:102B30000E4FB84205D00E4FB84202D00D4FB842EA
:102B400006D14DF6FF77394046F48057394305E00A
:102B500047F6FF57394044F4805739438283018454
:102B6000F0BD0000002C0140003401400004004092
:102B700000080040000C004030B585B005460C460A
:102B800001210846FFF7DEFB01210420FFF7EAFBE5
:102B90000F20ADF8100028208DF8130004A93C4840
:102BA000FFF72CF80F213A48FFF7B3F80020394916
:102BB00008804880012088800020C8800881012288
:102BC0000321900700F0E0FA32494FF0804000F016
:102BD00085FA04202F490880002048800120888041
:102BE0000020C880088101220521880700F0CCFA66
:102BF00028494FF0804000F071FA082025490880EC
:102C000000204880012088800020C880088101229F
:102C10000921880700F0B8FA1E494FF0804000F003
:102C20005DFA0C201B490880002048800120888024
:102C30000020C880088101221121880700F0A4FA31
:102C400014494FF0804000F049FAADF80850ADF853
:102C500004400020ADF80A00ADF8060001A94FF0CD
:102C6000804000F05BFC1C208DF8000002208DF8F5
:102C7000010000208DF8020001208DF80300684655
:102C8000FFF71CFB0121880700F0FDF905B030BDFE
:102C9000000801405000002010B5B448007800F052
:102CA000800000284FD10121880700F005FAD0B13B
:102CB000AE48007800F04000A8B1AC48007800F0C1
:102CC0003F003F280AD1A948007840F08000A7497A
:102CD00008704FF6FF70A649088004E0A34800780A
:102CE000401CA24908700221480700F0E5F950B3E2
:102CF0009E48007800F0400088B19C48007840F081
:102D000080009A4908704FF0804000F0C8F9984957
:102D1000088000214FF0804000F08CFA13E0002082
:102D2000924908709249088000214FF0804000F0DD
:102D3000C6FB8E48007840F040008C4908700221A4
:102D4000480700F077FA03214FF0804000F098F92F
:102D50008848007800F0800000284FD101218807C2
:102D600000F0AAF9D0B18348007800F04000A8B183
:102D70008048007800F03F003F280AD17D48007865
:102D800040F080007B4908704FF6FF707A49088058
:102D900004E078480078401C764908700421080750
:102DA00000F08AF950B37348007800F0400088B111
:102DB0007048007840F080006E4908704FF0804005
:102DC00000F070F96C49088000214FF0804000F05D
:102DD00095FA13E0002067490870674908800021D0
:102DE0004FF0804000F06BFB6248007840F04000FC
:102DF000604908700221480700F080FA0521880721
:102E000000F03EF95D48007800F0800000284FD1C6
:102E10000121880700F050F9D0B15848007800F03F
:102E20004000A8B15548007800F03F003F280AD183
:102E30005248007840F08000504908704FF6FF700B
:102E40004F49088004E04D480078401C4B49087009
:102E50000821C80600F030F950B34848007800F067
:102E6000400088B14548007840F080004349087030
:102E70004FF0804000F019F94149088000214FF0DF
:102E8000804000F0A5FA13E000203C4908703C495E
:102E9000088000214FF0804000F011FB3748007897
:102EA00040F04000354908700221480700F090FAD0
:102EB0000921880700F0E4F83248007800F080002B
:102EC000D0BB0121880700F0F7F8D0B12D48007879
:102ED00000F04000A8B12B48007800F03F003F28E8
:102EE0000AD12848007840F08000264908704FF643
:102EF000FF702549088004E022480078401C2149E1
:102F000008701021880600F0D7F8A8B11D48007895
:102F100000F0400088B11B48007840F0800019495B
:102F200008704FF0804000F0C3F817490880002176
:102F30004FF0804000F0A0FA13E000201149087023
:102F40001149088000214FF0804000F0B8FA0D4888
:102F5000007840F040000B4908700221480700F05B
:102F60008BFA1121880700F08BF810BD3800002083
:102F70003A0000203C0000203E00002040000020DD
:102F800042000020440000204600002030B589B0F7
:102F900005460C4601210420FFF7D4F90121082041
:102FA000FFF7E0F901210846FFF7DCF94FF47070F4
:102FB000ADF8200018208DF8230003208DF82200A2
:102FC00008A92D48FEF71AFEADF80850ADF80440E8
:102FD0000020ADF80600ADF80A0001A9274800F06E
:102FE0009DFA6020ADF810000020ADF81800012017
:102FF000ADF812000821214800F025F904A91F4866
:1030000000F0CCF86020ADF810000020ADF81800FA
:103010000120ADF812000821184800F07CF904A93D
:10302000164800F019F96020ADF810000020ADF846
:1030300018000120ADF812000821104800F0D5F961
:1030400004A90E4800F074F96020ADF810000020CB
:10305000ADF818000120ADF812000821074800F073
:1030600018FA04A9054800F0C9F90121034800F045
:103070000AF809B030BD0000000C01400008004013
:10308000CA430282704721B1028842F001020280E5
:1030900004E002884FF6FE731A4002807047014632
:1030A000888E70470146088F70470146888F7047A9
:1030B0000146B1F84000704730B5024600200023B9
:1030C0000024158A05EA0103958905EA010413B174
:1030D0000CB1012000E0002030BD000070B50546B5
:1030E0000C46244885420ED0234885420BD0B5F1CA
:1030F000804F08D02148854205D02148854202D022
:103100002048854200D100E000BF208850B92389C3
:10311000A28861882846FFF70FFCE188284600F066
:10312000D0F925E0208804280AD12389A288618863
:103130002846FFF741FCE188284600F0CBF917E06C
:10314000208808280AD12389A28861882846FFF7A9
:103150007FFCE188284600F0CAF909E02389A288AB
:1031600061882846FFF7BCFCE188284600F0C8F9D2
:1031700070BD0000002C01400034014000040040FC
:1031800000080040000C00401AB183890B43838182
:1031900002E083898B4383817047000070B500246F
:1031A00000220023058C4FF6FE7635400584028C04
:1031B0008388048B4FF68F752C40B51E2C400D88EC
:1031C0002C43751E2A400D892A434D882A43144DED
:1031D000A8420BD0134DA84208D0134DA84205D0E9
:1031E000124DA84202D0124DA84213D14FF6F775E6
:1031F0002A404D892A434FF6FB752A408D882A4381
:103200004FF6FF652B404FF6FF552B408D892B4322
:10321000CD892B4383800483CD888586028470BD4D
:10322000002C0140003401400040014000440140B6
:10323000004801400A460021018C4FF6FD731940F9
:103240001143018470470A460021018B4FF6F77342
:10325000194011430183704770B5002400220023F8
:10326000058C4FF6EF7635400584028C8388048BFD
:1032700048F6FF752C404FF6FF452C400D884FF661
:10328000FF7606EA05252C434FF6DF752A400D89A7
:1032900006EA05152A434D8806EA05152A43154D09
:1032A000A84202D0144DA8421DD14FF67F752A4086
:1032B0004D894FF6FF7606EA05152A434FF6BF758E
:1032C0002A408D8806EA05152A434FF6FF352B4024
:1032D0004FF2FF752B408D8906EA85052B43CD897A
:1032E00006EA85052B4383800483CD880587028405
:1032F00070BD0000002C0140003401400A4600214E
:10330000018C4FF6DF7319404FF6FF7303EA021387
:103310001943018470470A460021018B4FF2FF7365
:1033200019404FF6FF7303EA0223194301837047E4
:1033300070B5002400220023058C4FF6FF6635404F
:103340000584028C8388848B4FF68F752C404FF652
:10335000FC752C400D882C434FF6FF552A400D89F3
:103360004FF6FF7606EA05252A434D8806EA05252D
:103370002A43154DA84202D0144DA8421DD14FF248
:10338000FF752A404D894FF6FF7606EA05252A4348
:103390004FF6FF352A408D8806EA05252A434EF66A
:1033A000FF752B404DF6FF752B408D8906EA0515FC
:1033B0002B43CD8906EA05152B4383808483CD8872
:1033C0008587028470BD0000002C0140003401405C
:1033D0000A460021018C4FF6FF5319404FF6FF7348
:1033E00003EA02231943018470470A460021818BB6
:1033F0004FF6F773194011438183704770B500226F
:1034000000230024058C4EF6FF7635400584038C9E
:103410008488828B48F6FF752A404FF6FF452A4084
:103420000D884FF6FF7606EA05252A434DF6FF750F
:103430002B400D8906EA05352B434D8806EA0535F4
:103440002B430B4DA84202D00A4DA84208D14BF69F
:10345000FF752C408D894FF6FF7606EA85152C43C3
:1034600084808283CD88A0F84050038470BD000022
:10347000002C0140003401400A460021018C4DF629
:10348000FF7319404FF6FF7303EA023319430184B7
:1034900070470A460021818B4FF2FF7319404FF6A7
:1034A000FF7303EA022319438183704781867047C3
:1034B0000187704781877047A0F84010704781846A
:1034C0007047028B4FF6F3731A400283028B0A4354
:1034D00002837047028B4FF2FF331A400283028B44
:1034E0004FF6FF7303EA01231A4302837047828B6E
:1034F0004FF6F3731A408283828B0A4382837047AC
:10350000828B4FF2FF331A408283828B4FF6FF7318
:1035100003EA01231A4382837047000000220288D5
:103520001D4B98420ED01D4B98420BD0B0F1804FEE
:1035300008D01B4B984205D01A4B984202D01A4B28
:10354000984204D14FF68F731A404B881A43174B99
:10355000984207D0164B984204D04FF6FF431A40CA
:10356000CB881A4302808B8883850B8803850A4B9E
:1035700098420BD0094B984208D00E4B984205D088
:103580000D4B984202D00D4B984201D10B7A038625
:103590000123838270470000002C01400034014069
:1035A0000004004000080040000C004000100040F3
:1035B0000014004000400140004401400048014028
:1035C00010B5FFF74DF8FEF775FD10BD10B540F2D0
:1035D0002551064800F0A3F838B1044800F05AF924
:1035E000C4B2214602A0FCF761FE10BD00380140C4
:1035F0002563000010B586B00446012144F20400A2
:10360000FEF7B0FE4FF40070ADF8140003208DF803
:10361000160018208DF8170005A91C48FEF7EEFAD1
:103620004FF48060ADF8140004208DF8170005A950
:103630001648FEF7E3FA25208DF8000003208DF8E8
:1036400001008DF8020001208DF803006846FEF7A6
:1036500035FE01940020ADF80800ADF80A00ADF881
:103660000C00ADF810000C20ADF80E0001A90848C0
:1036700000F0A4F8002240F22551054800F079F846
:103680000121034800F032F806B010BD00080140E7
:10369000003801400FB410B5B4B0002437A8009032
:1036A000C92101A8009B369AFCF7E6FD0EE02046F2
:1036B000621CD4B201AA115C0B4800F0F0F800BF04
:1036C0004021094800F01EF80028F9D0C82C04DA7F
:1036D00001A8FCF7E5FEA042E9D80020009034B034
:1036E00010BC5DF814FB00000038014021B1828954
:1036F00042F40052828104E082894DF6FF731A4041
:103700008281704702460020B1F5007F00D100BFE2
:1037100013880B400BB1012000E00020704770B50A
:103720000246002400230025002040F66A16B1421C
:1037300000D100BFC1F3421501F01F03012606FAB4
:1037400003F3012D02D19689334006E0022D02D108
:10375000168A334001E0968A33400C12012606FA9D
:1037600004F41688344013B10CB1012000E00020AD
:1037700070BDF0B50346002400260025002040F669
:103780006A17B94200D100BF1846C1F3421401F0D4
:103790001F06012707FA06F5012C01D10C3004E0C1
:1037A000022C01D1103000E014301AB107682F4309
:1037B000076002E00768AF430760F0BD2DE9F047FE
:1037C00086B005460E460024A24600BFA14600274B
:1037D000B08900B100BF2F462C8A4CF6FF70044020
:1037E000F08804432C82AC894EF6F3100440B08874
:1037F00031890843718908430443AC81AC8A4FF690
:10380000FF400440B0890443AC8201A8FEF712FED9
:103810001F48874202D1DDF810A001E0DDF80CA0BE
:10382000A88900F4004040B10AEBCA0000EB0A107E
:1038300031684900B0FBF1F807E00AEBCA0000EB81
:103840000A1031688900B0FBF1F86420B8FBF0F091
:1038500004012009642101FB1089A88900F40040BB
:1038600040B1322000EBC900B0FBF1F000F00700DE
:10387000044308E0322000EB09106421B0FBF1F0B2
:1038800000F00F0004432C8106B0BDE8F087000073
:103890000038014001468888C0F308007047C1F332
:1038A00008028280704700BFFEE7490050EAC1204D
:1038B00018BF04204A0D18BF40F0010040F2FF720B
:1038C000B2EB515F08BF40F00200012808BF05209D
:1038D000704730380A2801D2012070470020704715
:1038E00000BF704700BF054A128802F04002002A5C
:1038F000F9D0C2B2014B1B1D1A807047003801403D
:10390000FEF72FF9FEF76AFB01E0FFF759FEFCE72F
:1039100010B500290AD00878002807D00548784457
:10392000FDF724FD002801D0002010BD0248784496
:1039300010BD0000720100006A01000010B50029EE
:103940000AD00878002807D005487844FDF70EFD16
:10395000002801D0002010BD0248784410BD0000AE
:10396000620100005A010000FDF727B9FDF75CBABB
:103970000400000800000000000000020001000038
:103980001000000000000000000000003031323361
:103990003435363738394142434445464030580083
:1039A00030313233343536373839616263646566B5
:1039B000403078003031323334353637383961624F
:1039C00063646566787000303132333435363738A9
:1039D000394142434445465850000000024000002F
:1039E000000000A00000000005400000000000C82A
:1039F000000000000C4000000000409C000000009F
:103A0000194000000020BCBE00000000344000004F
:103A1000BFC91B8E00000004B5400000504BCFD042
:103A20006607E2CF010000006C4100003E8251AA0F
:103A3000DFEEA73401000000D9420000DCB5A0E2AF
:103A40003A301F97FFFFFFFFB4450000FD25A0C8D7
:103A5000E9A3C14FFFFFFFFFFF3F00000000008010
:103A600000000000FF3F0000000000800000000098
:103A7000BC3B0008000000205000000028010008A6
:103A80000C3C0008500000207006000044010008B3
:103A90001C00000043000000F8FFFFFF0C000000C6
:103AA0000E0000000F0000002E00000010010000BA
:103AB00043000000F8FFFFFF00404040404040400E
:103AC00040404141414141404040404040404040F1
:103AD0004040404040404040400502020202020295
:103AE00002020202020202020220202020202020E4
:103AF00020202002020202020202909090909090F8
:103B000010101010101010101010101010101010B5
:103B10001010101002020202020288888888888829
:103B20000808080808080808080808080808080815
:103B3000080808080202020240000000000000001D
:103B40000000000000000000000000000000000075
:103B50000000000000000000000000000000000065
:103B60000000000000000000000000000000000055
:103B70000000000000000000000000000000000045
:103B80000000000000000000000000000000000035
:103B90000000000000000000000000000000000025
:103BA0000000000000000000000000000000000015
:103BB0000000000000000000000000000000000005
:103BC00001020304010203040607080902040608AF
:103BD00000000000000000000000000000000000E5
:103BE00001000000000000000000000000000000D4
:103BF00000000000000000000000000000000000C5
:0C3C0000000000000000000000000000B8
:04000005080000ED02
:00000001FF
