:020000040800F2
:100000003808002035020008B13A00085D2E0008CB
:10001000B9390008B51C0008C754000800000000EA
:100020000000000000000000000000004D4000083B
:10003000D523000800000000DD3B0008C541000892
:100040004F0200084F0200084F0200084F0200084C
:100050004F0200084F0200084F0200084F0200083C
:100060004F0200084F0200084F0200084F0200082C
:100070004F0200084F0200084F0200084F0200081C
:100080004F0200084F0200084F0200084F0200080C
:100090004F0200084F0200084F0200084F020008FC
:1000A0004F0200084F0200084F0200084F020008EC
:1000B000894500087D4800084F0200084F020008EB
:1000C0004F0200084F0200084F0200084F020008CC
:1000D0004F020008ED5100084F0200084F020008CF
:1000E0004F0200084F0200084F02000800F002F81B
:1000F00000F090F80AA090E8000C82448344AAF132
:100100000107DA4501D100F085F8AFF2090EBAE82F
:100110000F0013F0010F18BFFB1A43F0010318473B
:10012000D4710000F4710000103A24BF78C878C17F
:10013000FAD8520724BF30C830C144BF04680C60ED
:10014000704700000023002400250026103A28BF35
:1001500078C1FBD8520728BF30C148BF0B60704739
:100160006E2900F04182702900F0B383662906F001
:100170004E87652906F04B87672906F04887612975
:1001800006F0478703681B0A28BF41F080016929F0
:1001900000F0EE81642900F0EB81752900F0E88120
:1001A0006F2900F04183782900F07F83E92900F06E
:1001B000DB82E42900F0D882F52900F0D582EF290E
:1001C00000F03E83F82900F07E830368DB0928BF36
:1001D00041F08001632900F04A82732900F04F82C8
:1001E000E32900F0B987F32900F0BE8700207047AB
:1001F0001FB501F013F804000020002105F088FE6F
:10020000401C60600020002105F06CFEE0601FBD16
:1002100010B510BD00F0D4FF1146FFF7E9FF05F05F
:1002200015FE01F0ADF803B4FFF7F2FF03BC05F0D3
:10023000CFFA00000948804709480047FEE7FEE77B
:10024000FEE7FEE7FEE7FEE7FEE7FEE7FEE7FEE786
:1002500004480549054A064B70470000C94100089B
:10026000ED00000838020020380800203804002083
:1002700038040020704700007CB51D4616460C006F
:10028000009001D02044401E074B7B442A4669461B
:100290000190304600F0C1F905461CB100206946C6
:1002A00000F0CEF928467CBDBD0300000FB4044920
:1002B00010B503AA029800F0E7F910BC5DF814FB32
:1002C0007400002070B50C460546012A05D0287838
:1002D000800600D5EA69002302E0012305E05B1CEB
:1002E000934202D2E05C0028F9D1A869E618C01A4E
:1002F000A861286A18442862284600F0FFF804E044
:10030000D5E9012114F8010B9047B442F8D32846EF
:1003100000F00AF970BD00002DE9F05F894604463F
:100320004FF0000ADFF874B1FB44C0F820A020466B
:10033000E1688847002874D0252806D0D4E9012137
:100340009047206A401C2062F1E700265F46204665
:10035000E16888472028054607DB312D05D278194A
:1003600010F8200C08B10643F1E7B00701D526F0DC
:100370000406C4F81CA00027C4F818A02A2D09D030
:10038000284605F01EFA38B304EB8708303DC8F85C
:10039000185019E059F8041B204604EB87029161BC
:1003A000E1688847012F054618D1E069002820DA66
:1003B00026F020061DE0D8F8180000EB800005EBC1
:1003C00040003038C8F818002046E16888470546E4
:1003D00005F0F7F90028EED1012F0AD02E2D08D113
:1003E0002046E16888477F1C0546022F46F020061C
:1003F000C4DBA069002803DA404246F00106A06190
:10040000F00701D026F010066C2D0BD0682D09D016
:100410004C2D39D06A2D35D0742D35D07A2D33D06E
:1004200016E038E0E1682F4620468847B842054686
:1004300009D16C2F26D04FF48060E1680643204636
:100440008847054604E06C2F1AD04FF480700643AD
:100450000DB3A5F14100192802D8203546F40066F5
:100460004A462946204626604E46FFF779FE80B16F
:1004700001280BD0F61D26F0070000F1080956E709
:100480004020E4E78020D8E70020D6E706F1040901
:100490004DE7284652E7206ABDE8F09FDA6D00007C
:1004A00010B5431C02E010F8011B71B18107FAD1AD
:1004B0004FF0013202C88C1A8C4314EAC211F9D0F1
:1004C000C01A0A0603D0C01E10BDC01A10BD0A040F
:1004D00001D0801E10BD0902FCD0401E10BD704727
:1004E00070477047704710B500F0FEF9006810BD06
:1004F00010B5044600F0F8F9046010BD70B504466C
:1005000085690068C10601D5302600E02026C007B5
:1005100007D070BDD4E9012130469047206A401CC5
:1005200020626D1EF6D570BD70B5044685690078F1
:10053000C00707D170BDD4E9012120209047206A6F
:10054000401C20626D1EF6D570BD09684A0501D5B4
:1005500040B27047C905FCD500B2704709684A052A
:1005600001D5C0B27047C905FCD580B27047000004
:100570002DE9F0410646002410687529314616A57C
:1005800010D0FFF7E2FF002802DA404213A507E08F
:1005900031688A0701D512A502E0490704D511A5E3
:1005A000012401E0FFF7DAFF00210A2206F1240707
:1005B00009E0B0FBF2FCB0FBF2F302FB1C003030B0
:1005C00078541846491C0028F3D123462A46304661
:1005D000BDE8F04100F0D1B9000000002D0000009E
:1005E0002B0000002000000011680268006A53051B
:1005F00001D508700AE0D30501D5088006E013068E
:1006000003D5C217C1E9000200E00860012070476D
:1006100001694A1C02610878704700B58FB0CDE9C6
:1006200001310021059105497944CDE903101146B6
:100630006846FFF771FE0FB000BD0000E5FFFFFF49
:100640000A6802F8010B0A607047D1E900239A4258
:1006500002D2531C0B601070704710B5436913B180
:10066000AFF3008001E0FFF72DFE012010BD1278EE
:1006700000F124010A7000224A700122EDE711689E
:100680004FF0FF32E9E70000074B70B50D467B44A1
:10069000FFF7C3FF0446284600F06AFD10B14FF093
:1006A000FF3070BD204670BD535700002DE9FF5F3D
:1006B00015468A460446DFF8AC80F8440027D8E99E
:1006C00000103E46CDE9001010E03AF816106A46D8
:1006D00002A800F051FD411C07D02178890603D5FE
:1006E000E269391891420DD80744761C20788006BB
:1006F00002D5E069B84205DDAE42E6DB3AF8160005
:100700000028E2D1A069C01BA0612046FFF7F6FED9
:10071000D8E90010CDE90010002017E03AF81810D1
:100720006A4602A800F028FDB0F1FF3F81460BD0D9
:1007300000250DF1080B05E0D4E901211BF80500A7
:1007400090476D1C4D45F7D308F10100B04280463B
:10075000E4DB206A384420622046FFF7E5FEBDE86E
:10076000FF9F0000AA6A00002DE9F0418046D21DDB
:1007700022F007020025D2E90002F52915A614D0BF
:10078000011E72F1000106DA0023D0EB030063EBD7
:10079000020211A608E0D8F800108B0701D50FA6B9
:1007A00002E0490701D50EA601251146002408F1F3
:1007B000240704E000F09CF830323A55641C50EAFB
:1007C0000102F7D12B46324621464046BDE8F041B2
:1007D00000F0D3B8000000002D0000002B00000046
:1007E0002000000030B4002100F1240408E002F0F1
:1007F0000705D208303542EA4372DB086554491CCC
:1008000052EA0305F3D10468002310A2250708D596
:1008100004F020040C4304D0C46901230CA2641E1C
:10082000C46130BC00F0A9B810B504462146106878
:10083000FFF794FE02462046BDE810400023D1E7B2
:10084000D21D22F00701D1E90023CBE70000000010
:1008500030000000F0B40D460188090502D5214C96
:100860007C4402E01F4C7C440E34002100F124063D
:1008700008E002F00F071209E75D42EA03721B0964
:100880007754491C52EA0307F3D102780023120778
:1008900004D5702D06D009B1022311342246F0BCD4
:1008A00000F06BB801231034F8E770B504460D462C
:1008B00021461068FFF752FE024629462046BDE851
:1008C00070400023C6E7D21D22F00703D3E90023BE
:1008D000C0E70368126843F0200303600823C36184
:1008E0000023B7E70C69000000487047D4010020DE
:1008F00030B5B0F10A024FEA900E71F100034EEAF2
:10090000817EB0EB0E0061EB91014FEA101E4EEAC2
:10091000017E10EB0E0041EB11114FEA102E4EEA52
:10092000016E10EB0E0041EB11214FEA104E4EEA22
:10093000014E10EB0E0041EB1141401841F1000156
:100940004FEAD00040EA41704FEAD10110EB800538
:100950004FEA810444EA907444EB01046D1944EBBE
:100960000404521BA3414FF0000348BF0A3200D5D4
:1009700030BD401C41F1000130BD2DE9F0470D466E
:1009800099469246044600F124080168880604D579
:10099000E06921F01001216000E00120A84201DDA2
:1009A000471B00E00027A1697A1902EB0900081A29
:1009B000A0612078C00602D42046FFF79FFD0026E4
:1009C00008E0D4E901211AF806009047206A401C8B
:1009D000761C20624E45F4DB2078C0060AD52046FE
:1009E000FFF78CFD06E0D4E9012130209047206A12
:1009F000401C2062381EA7F10107F4DC07E0D4E9AF
:100A0000012118F805009047206A401C2062281E2A
:100A1000A5F10105F3DC2046FFF786FD20780006EE
:100A200002D50220BDE8F0870120FBE770472DE9E1
:100A3000FF4F0C461E464FF0FF378BB0D2E9000146
:100A4000DDF860800A908A46C1F30A5505B93D4633
:100A5000002108464FF00000BAF1000F00F44000FA
:100A600005DA00EB80004FF4400101EA50004FEA44
:100A70009059B9F1010F00DDB9460A9850EA4A00D1
:100A80000ED044F61050A5F2FF3545432F14B8F1AF
:100A9000000F1ED07542291E1EDDC9F100021CE0A8
:100AA000B8F1010F4FF0000001D0302103E0F24314
:100AB00005E02154401CB042FBDB304600220021FF
:100AC00021540B99C1F80880C1E900200FB0BDE89E
:100AD000F08FBD1B6D1CDEE74A4600DA694206A8AE
:100AE00000F0E0FB06AB93E8070003AB83E80700E8
:100AF00050460A9900F08AFC8DE80700A0F50050E6
:100B00001F3800900398002D09DD42F21F014A466C
:100B1000084403A90390684600F0E9FE08E0A0F548
:100B200000504A461F3803A90390684600F0F3FEC0
:100B30008DE807000004000C03D04FF0FF3041089F
:100B400000E01046B8F1000F03D0002200921546D5
:100B50001EE0751E05D4FFF7CBFE303262556D1EC8
:100B6000F9D5B3460122084302D000227F1C04E0DD
:100B70002078302801D100227F1E002A099786D0D4
:100B80001DE0112D07DAFFF7B3FE303262556D1C00
:100B900050EA0102F5D1084302D00098C8B10EE036
:100BA0000021681E05E0235C625C63542254401EF1
:100BB000491C8142F7DBAB46A81B401E0990002070
:100BC00004F80B000B98099AC0F80880C0E9002BC4
:100BD0007CE711264FF0000859E72DE9F04F8846D1
:100BE0000446D21D22F0070191B0D1E90001CDE900
:100BF0000A0104F06AFC02460B98C00F01D02D20B8
:100C000007E02068810701D52B2002E0202101EABE
:100C1000C000032A099001D0072A05DB034641469C
:100C2000204600F0FFFA0BE12078800601D5E0694C
:100C300000E00620B8F1650F814606D0B8F1660FD6
:100C400018D0B8F1670F70D131E00020B9F1110F61
:100C5000009001DB112301E009F101030AAA01A9B7
:100C60000CA8FFF7E4FEDDE90C70002609F1010590
:100C7000834647E001204B4600904FF000470AAA08
:100C800001A90CA8FFF7D3FEDDE90DB00C995D4674
:100C9000002610B909F101000D18B9EB050003D4C5
:100CA000C0F1FF3609F10105A5EB09002BE0B9F110
:100CB000010F01DA4FF001090020B9F1110F009086
:100CC000484601DD112300E003460AAA01A90CA849
:100CD000FFF7ADFEDDE90C704D4600268346207817
:100CE00000070AD4AB4500DA5D4601A8012D04DDFA
:100CF000411911F8011C302907D04F4502DA17F1CC
:100D0000040F04DA012082460FE06D1EEEE7002F8B
:100D100002DCED1B3E4403E0781CA84200DD7D1C94
:100D2000B81B00F1010A4FF000472078000703D4F8
:100D3000AA4501DB4FF0FF3A0021B7F1004F0DF15A
:100D400043088DF8431024D002202B23002F01DA12
:100D50007F422D230A21021EA0F1010000DC5FB1B9
:100D600097FBF1FC97FBF1F201FB1C7C17460CF1A1
:100D7000300C08F801CDEEE7A8F1010003702188DE
:100D8000090501D5452100E06521A0F1010800F821
:100D9000011C09980FA9A1EB0807FF1D00B1012054
:100DA000411901EBEA70A1693844081A401EA0619C
:100DB0002078C00602D42046FFF7A0FB099828B18E
:100DC000D4E901219047206A401C20622078C006A7
:100DD00022D52046FFF792FB1EE0002E04DBB34530
:100DE00002DD01A8805D00E03020D4E901219047B8
:100DF000206A401C2062761CAAF101005FEA000A0A
:100E00000AD100F00BFAC0680168405CD4E9012106
:100E10009047206A401C2062281EA5F10105DCDCF9
:100E200007E0D4E9012118F8010B9047206A401C23
:100E30002062381EA7F10107F3DC2046FFF774FBA0
:100E4000032011B043E600002DE9F04F04460D46A3
:100E5000D21D22F0070089B0D0E90092484617461B
:100E6000394604F032FB0246F80F01D02D2307E08B
:100E70002068810701D52B2302E0202101EAC0036D
:100E80008DF820300BB1012000E00020032A8246BB
:100E900001D0072A04DB2946204600F0C3F93DE1D2
:100EA0002078800601D40D2500E0E569C7F30A56D5
:100EB0000D2D49DA00214FEA175B08464FF000007C
:100EC000002F00F4400007DA00EB80004FF44001EF
:100ED00000EBD07001EA60008115012901DD4FF0BF
:100EE000FF3100224FEA850CBCF1180F06D31346E0
:100EF000ACF118004FF08052C24003E04FF4801371
:100F000023FA0CF30CF10C0CBCF1200F04D3ACF160
:100F1000200C09FA0CF001E007FA0CF000294FF060
:100F2000004801DD18B90FE00ED140450CD319EB94
:100F300002095F4121B9404502D19F4329EA0209D4
:100F4000BBEB175F00D0761C2088000502D57B48DC
:100F5000784402E079487844193808AA302302F826
:100F60000A30037C0AF10101002E0AF1020A5354EF
:100F70006A4602DC4FF0300101E04FF031014FF0E2
:100F800001088DF8001002D0A6F2FF3603E059EAFE
:100F9000470100D06A4E002D02DC2178090704D5F4
:100FA0004FF002082E218DF80110C44600210BE0FD
:100FB000C7F303433F01C35C491C6D1E02F80830B0
:100FC000052908F1010801DA002DF1DC00210CE00F
:100FD00000EB1973491C1B786D1E082902F80830B4
:100FE0004FEA091908F1010801DA002DF0DC217837
:100FF000890602D514E0A8F10108E04505DD02EB01
:10100000080111F8011C3029F5D0B8F1000F07DDF7
:1010100002EB080111F8011C2E2901D1A8F10108E9
:10102000002D05DD3E2102F808106D1E08F10108B3
:10103000407C002E02F8080008F1010804DA2D2097
:10104000764202F8080002E02B2002F808000A218C
:101050004FF47A70864208F101080BDB96FBF0F33F
:10106000303302F8083096FBF0F308F1010800FB7A
:10107000136601E0642E0CDB642096FBF0F3303342
:1010800002F8083096FBF0F308F1010800FB136644
:1010900001E00A2E06DB96FBF1F0303002F8080082
:1010A00008F1010896FBF1F001FB1060303002F806
:1010B0000800A16908F1010808EB050202EB0A002B
:1010C000081AA0612078C00602D42046FFF716FA5D
:1010D000216A08AE01EB0A00206204E0D4E9012194
:1010E00016F8010B9047BAF1010AF7D22078C00632
:1010F00002D52046FFF702FA6E4609E016F8010B0A
:101100003E280FD0D4E901219047206A401C20627C
:10111000B8F10108F2D22046FFF706FA09B0032021
:10112000BDE8F08F206A2844206203E0D4E9012161
:10113000302090476D1EEBD3F8E70000F762000007
:1011400002FCFFFF10B5436913B1AFF3008001E06B
:10115000FFF7ACFA012010BD128800F1240182844F
:101160000022C2840122EDE711684FF0FF32E9E767
:10117000007B00F08000704770B516460C460546AF
:1011800000F044F8036893F80101012806D0FF2C11
:101190000FD8185D68B101202C7070BDD3F807011D
:1011A0003246214603F2071303442846BDE8704047
:1011B00018474FF0FF3070BD00487047D401002041
:1011C0007546FFF7F9FFAE4605006946534620F025
:1011D0000700854618B020B5FFF73AF8BDE8204073
:1011E0004FF000064FF000074FF000084FF0000BE3
:1011F00021F00701AC46ACE8C009ACE8C009ACE896
:10120000C009ACE8C0098D467047000010B500F079
:1012100005F8001D10BD00BFF94C000000487047E4
:10122000F40100202DE9F0411F4604460326016821
:10123000072A01F4006004DB08B116A505E016A535
:1012400003E008B115A500E015A521F0100020600D
:10125000A069C01EA0610FB1401EA0612046FFF72B
:101260004DF94FB1D4E9012138469047206A401C1E
:101270002062C01C206206E0206AFAE7D4E901215E
:1012800015F8010B9047761EF8D22046FFF74CF96F
:10129000BDE8F0814E414E006E616E00494E460041
:1012A000696E66002DE9F047814616468AB03348DC
:1012B00078440DC88DE80D0030487844801C03AC9C
:1012C0000DC884E80D0041F69B300844372190FB9F
:1012D000F1F290FBF1F5A5F1800501FB12041B3C36
:1012E00002D56442012000E00020DFF890A0804693
:1012F0000027FA44AAF1BE0A0DE0E00709D0324601
:10130000684607EB47010AEB810100F004FB8DE81A
:10131000070064107F1C002CEFD1184F7F44AC3FB6
:1013200018E0E80714D007EB04100DF1180A90E854
:101330000E008AE80E00C068F04201D198190890AA
:10134000324606A903A800F0E6FA03AB83E80700DB
:101350006D10641C002DE4D132466946B8F1000FCF
:1013600003A802D000F0C3FA01E000F0D4FAC9E902
:101370000001C9F808200AB0BDE8F0872860000025
:101380000446AFF300802046FEF74DFF4FF0013CCE
:1013900050F8042B51F8043B9A4221D1A2EB0C03E4
:1013A000934313EACC1317D150F8042B51F8043BA4
:1013B0009A4215D1A2EB0C03934313EACC130BD141
:1013C00050F8042B51F8043B9A4209D1A2EB0C03CC
:1013D000934313EACC13DBD04FF00000704700BFFB
:1013E000D01A01BAB1FA81F101F0180122FA01F024
:1013F000CB40C1F12001DBB2C0B2C01A2CFA01F31C
:10140000D11A914311EAC311E6D170475FEA400C4B
:1014100008BF91F0000F4FEA8C234FEAC12243EA44
:1014200051514FEA1C5018BF00F5F0404FEA300010
:1014300018BF41F000415FEA6C5C00F02980BCF10C
:10144000FF3F08BF40F080407047130C06BF1204F6
:101450004FF0100C4FF0000C130E04BF12020CF1F1
:10146000080C130F04BF12010CF1040C930F04BFFE
:1014700092000CF1020CD30F04BF52000CF1010CCE
:1014800011464FF00002A0F11F00A0EB0C007047C6
:1014900011F0004F08BF704731F000413FF4D5AF65
:1014A0000B0C06BF09044FF0100C4FF0000C0B0E94
:1014B00004BF09020CF1080C0B0F04BF09010CF169
:1014C000040C8B0F04BF89000CF1020CCB0F04BF7E
:1014D00049000CF1010CCCF12003A0EB0C0022FA26
:1014E00003F302FA0CF241EA030100F10100704734
:1014F00020F07F4C80EA030023F07F47ACEB07032A
:1015000003F57C5300F0004003F1FF032DE980490F
:101510004FEA154B09B44FEA144325EA0B4E24EA6F
:1015200003480FF2042606EB132749083E785FEACA
:10153000320203FB0667C7F5000707FB06F64FEA12
:1015400054374FEAD64606F1020607FB066CCCF18B
:10155000005C4FEA1C472CEA074C07FB06F40CFB27
:1015600006F504EB15464FEA961634BF00204FF0FF
:1015700000404FEAD13706FB07FC4FEA1C4C0CFB3E
:101580000BF7D21B03FB0CF761EB07010CFB0EF70B
:10159000B0EB074072EB17420CFB08F734BFA2EB2D
:1015A0000742B2EB074261EB17414FEA0C444FEAA6
:1015B000910706FB07FC4FEA1C4C0CFB0BF7B0EB4A
:1015C000C74072EB573203FB0CF734BFA2EBC742A4
:1015D000B2EBC74261EB57310CFB0EF7B0EBC70023
:1015E00072EB57720CFB08F734BFA2EBC702B2EBE9
:1015F000C70261EB5771039F4FEA816141EA921183
:1016000004EBCC044FEAD1374FEA826206FB07FCB9
:1016100042EA90124FEA80604FEA1C4C0CFB0BF739
:10162000D21B03FB0CF761EB07010CFB0EF7B0EBD1
:10163000074072EB17420CFB08F734BFA2EB0742DE
:10164000B2EB074261EB17414FEA8C554FEA910725
:1016500004EB9C2406FB07FC4FEA1C4C0CFB0BF72D
:10166000B0EBC74072EB573203FB0CF734BFA2EB71
:10167000C742B2EBC74261EB57310CFB0EF7B0EB40
:10168000C70072EB57720CFB08F734BFA2EBC7021E
:10169000B2EBC70261EB577115EB4C254FEA816144
:1016A00041EA92114FEA82624FEAD13742EA901240
:1016B00006FB07FC44F100044FEA80604FEA1C4C33
:1016C0000CFB0BF7D21B03FB0CF761EB07010CFBC8
:1016D0000EF7B0EB074072EB17420CFB08F734BF74
:1016E000A2EB0742B2EB074261EB174115EB1C1569
:1016F0004FEA813141EA92414FEA823242EA904216
:101700004FEA80304FEA0C7644F1000448EA034384
:101710004EEA0B484FF0000EB2EB080C71EB0307DA
:1017200024BF624639464EEB0E0E4FF0000B0018F8
:10173000524149414BEB0B0BB2EB080C71EB030729
:101740007BF1000B24BF624639464EEB0E0E4FF084
:10175000000B0018524149414BEB0B0BB2EB080C4C
:1017600071EB03077BF1000B24BF624639464EEB59
:101770000E0E51EA020718BF46F0010616EB0E7670
:1017800055F1000254F1000103D5BDE88901BDE81F
:101790000088BDE88901BDE80048B619524141EB17
:1017A0000101A3F10103704780807F7E7D7C7B7AFD
:1017B0007978777676757473727171706F6E6E6DFD
:1017C0006C6C6B6A6A6968686766666564646363A3
:1017D00062616160605F5F5E5E5D5D5C5C5B5B5A29
:1017E0005A59595858575756565555555454535396
:1017F00052525251515050504F4F4F4E4E4D4D4DF1
:101800004C4C4C4B4B4B4A4A4A494949484848473B
:101810004747474646464545454444444443434379
:101820004342424242414141002B26D4770021D01D
:101830001CB54FEA370703B44FF010004FF010010A
:101840004FF000000FBCBDE810400BF1010BBBF1E5
:10185000010F08BF5FEA170722BF12F1010211F161
:1018600001014FF0004143F1000300F0004043EA62
:1018700000007047F9D35708DAE746EA064613F145
:10188000400F4FEA16461FDD13F1200FDFBF16434E
:101890000A46002120335B42C8D0C3F1200746EA44
:1018A000064602FA07F74FEA164646EA0706C3F16C
:1018B000200722FA03F201FA07F721FA03F14FF0A9
:1018C000000342EA0702B1E746EA020646EA064694
:1018D0004FEA164646EA0106BCBF46EA0646360C03
:1018E0004FF000034FF000024FF000019EE72DE99A
:1018F000C048934630B491E8380007C831EA400C3C
:1019000048BF34EA430C03D5FFF7F2FDFFF78CFF25
:10191000F0BCBDE800882DE9C048934630B491E89A
:10192000380007C810F0804F08BF13F0804F03D174
:1019300000F005F8FFF778FFF0BCBDE8008820F064
:101940007F4780EA030023F07F4C07EB0C03A3F5ED
:101950007C5300F00040A3F1FE0392F0000F00F072
:10196000B38095F0000F00F077802DE901494FEA30
:1019700011404FEA144621EA004800FB06FC24EA25
:10198000064708FB06F607FB08F800FB07F718EB0D
:1019900006484CEB164C4FEA124B18EB07484FEA3F
:1019A00015464CEB174022EA0B4E0BFB06FC25EAD2
:1019B00006470EFB06F607FB0EFE0BFB07F71EEBBA
:1019C000064E4CEB164C4FF000061EEB074E4CEB50
:1019D000174B18EB0B0840F1000018EB0E0B58EBFF
:1019E000000840F100008F1A4FF000013CBFC943CE
:1019F000661B14BFB5EB040C00213CBFC943F61BAA
:101A00004FEA17444EEA8E0E27EA04454FEA1C4778
:101A100004FB07622CEA074C05FB07F70CFB05F6F5
:101A200004FB0CFC16EB074642EB174216EB0C4688
:101A300042EB1C421BEB060658EB0202414146EA10
:101A40009E0601D5BDE80189B619524141EB01015D
:101A5000A3F10103BDE801894FEA14454FEA11479C
:101A600024EA054621EA074C05FB07F406FB07F7C5
:101A70000CFB06F105FB0CFC11EB074144EB174492
:101A80004FEA124711EB0C4144EB1C4422EA074C8D
:101A900005FB07F206FB07F70CFB06F605FB0CFC43
:101AA00016EB074642EB174216EB0C4642EB1C4581
:101AB0006A1854F1000148BF7047B619524141EB12
:101AC0000101A3F10103704795F0000F37D04FEAF1
:101AD00011424FEA144721EA024624EA074C02FB6E
:101AE00007F106FB07F70CFB06F402FB0CFC14EBFA
:101AF000074441EB17414FEA154714EB0C4441EB07
:101B00001C4125EA074C02FB07F506FB07F70CFB17
:101B100006F602FB0CFC16EB074645EB174516EBE9
:101B20000C4645EB1C42121951F1000148BF7047A9
:101B3000B619524141EB0101A3F1010370474FEA8D
:101B400014454FEA114724EA054621EA074C05FBF4
:101B500007F106FB07F70CFB06F24FF0000605FB4A
:101B60000CFC12EB074241EB174112EB0C4251EB1C
:101B70001C4148BF7047921841EB0101A3F10103DA
:101B8000704700002DE9F04705460C46B5F90010F6
:101B9000B4F90020881A05F05DF8814625480168EF
:101BA000484605F0B7F80746B4F9000005F052F8CA
:101BB0008046394604F002FF064605F02FF800B2D1
:101BC0002080B5F90210B4F90220881A05F042F815
:101BD000814618480168484605F09CF80746B4F964
:101BE000020005F037F88046394604F0E7FE064665
:101BF00005F014F800B26080B5F90410B4F90420BF
:101C0000881A05F027F881460A480168484605F019
:101C100081F80746B4F9040005F01CF880463946FF
:101C200004F0CCFE064604F0F9FF00B2A080BDE847
:101C3000F08700002C00002010B502F011F84FF4DE
:101C40007A7003F0A1FA01F077FF472140F2CF70DC
:101C500002F044FE4FF4A06001F064FF4FF4E13065
:101C600003F0D8FA47214FF6FF7002F0FDFB01F0B8
:101C70001BF900BF01F0EEFC0128FBD100F03EFF94
:101C800000F0B6FB00F0AEFB00F0A6FB012003491C
:101C9000087003A003F00EFB10BD00001700002029
:101CA0000D0A2042737020496E69742046696E697E
:101CB0007368000000BFFEE72DE9F04705460C46BB
:101CC000E08840F2D251884207DDE08840F2E651D8
:101CD000884202DA40F2DC50E080A08840F2D25123
:101CE000884207DDA08840F2E651884202DA40F2DD
:101CF000DC50A08040F2DC50208160816189A1F23B
:101D0000DC5004F0A7FF80467A4904F0C5FE064681
:101D1000E188A1F2DC5004F09DFF8146764904F091
:101D2000BBFE8046696805F0F2F80746314604F0CC
:101D300045FE724948602189A1F2DC5004F08AFF17
:101D400080466C4904F0A8FE0646A188A1F2DC504A
:101D500004F080FF8146684904F09EFE8046A96831
:101D600005F0D5F80746314605F0DCF86349886090
:101D70004868634905F09AF806D26249C868604924
:101D800004F01CFE5F49C8605C4948685E4904F085
:101D90008DFF07D25B49C8685B4904F00FFE5949C3
:101DA000C86007E0554A5168564AD06804F006FEFC
:101DB0005449C8605349C868544905F077F802D2BD
:101DC00052485049C8604F49C868514904F06EFFF5
:101DD00002D24F484B49C86048498868484905F0D5
:101DE00065F806D24B49C868454904F0E7FD494902
:101DF000C86042498868444904F058FF07D2454901
:101E0000C868414904F0DAFD4249C86007E03B4A2E
:101E10009168404AD06804F0D1FD3E49C8603D4910
:101E2000C8683A4905F042F802D238483949C860D2
:101E30003849C868364904F039FF02D23448354978
:101E4000C8602088B0F5966F04DA00202D49C8607C
:101E50003049C860304A5168284A506805F062F835
:101E6000804628488168404604F054FF0646254ACB
:101E7000D168506804F04EFF8046204A5168214ADC
:101E8000106804F047FF8146414604F097FD07467D
:101E9000314604F093FD1B4908611F4A9168174AB7
:101EA000906805F03FF880461A488168404604F083
:101EB00031FF0646174AD168506804F02BFF804670
:101EC0000E4A9168134A106804F024FF8146414687
:101ED00004F074FD0746314604F070FD0D490861B9
:101EE000064840680C494860044880688860BDE83E
:101EF000F08700000000C84200005041F4000020BC
:101F00000000204184010020000020C100007A442C
:101F100000007AC4700100200001002007B58AB0DB
:101F20000B984088B0F5AF6F08DD0B984088B0F58E
:101F3000C86F03DA40F2DC510B98418040F2DC516B
:101F40000B9881810A984068FE49039004F0E2FEF4
:101F50000590FD48006980F000400490059904F068
:101F6000E1FFFA4948600A980068F649049004F0D5
:101F7000D1FE0590F648006901460490059804F0EA
:101F8000C6FFF24988600B988089A0F2DC5002906D
:101F900004F060FEEF49039004F07EFD05900A987E
:101FA0008068E849019004F0B5FE03900B984088E2
:101FB00040F2DC51081A009004F04CFE4FF08041D2
:101FC000019004F069FD0290039904F0ABFF0490C6
:101FD000059904F0F3FCDD49086008464068DD49D6
:101FE000059004F063FF07D2DB48C068D94905902B
:101FF00004F0E4FCD849C860D4484068D74905904B
:1020000004F054FE08D2D448C068D449059004F0C6
:10201000D5FCD149C8600AE0CC4840680590CE485C
:10202000C0680490059904F0C9FCCB49C860CA484F
:10203000C068CB49059004F039FF02D2C848C649B0
:10204000C860C548C068C749059004F02FFE02D299
:10205000C448C149C860BD488068BE49059004F0C5
:1020600025FF07D2C048C068BA49059004F0A6FC15
:10207000BD49C860B5488068B849059004F016FEAF
:1020800008D2B948C068B549059004F097FCB64934
:10209000C8600AE0AD4880680590B348C068049005
:1020A000059904F08BFCB049C860AF48C068AC49E2
:1020B000059004F0FBFE02D2A948AB49C860AA48CB
:1020C000C068A849059004F0F1FD02D2A548A649D0
:1020D000C8609E4800680590A448C06804900599AF
:1020E00004F06CFCA149C8600846C0689C49059092
:1020F00004F0DCFE02D29A489C49C8609B48C06844
:102100009849059004F0D2FD02D296489749C860DC
:102110000B980088B0F5966F02DA00209349C860EA
:10212000934840680290894840680190029904F001
:10213000F9FE03908848806801460290039804F0F5
:10214000E9FD05908448C06801908348406800908C
:10215000019904F0DFFD03907C48406801907E48BF
:1021600000680090019904F0D5FD0290039904F0F5
:1021700025FC0490059904F021FC774908617C480E
:1021800080680290714880680190029904F0CAFE4C
:1021900003907548806801460290039804F0BAFDE8
:1021A00005907148C06801906F484068009001999F
:1021B00004F0B0FD03906548806801906A480068AB
:1021C0000090019904F0A6FD0290039904F0F6FB3B
:1021D0000490059904F0F2FB6349086164480068C3
:1021E00002905A4800680190029904F09BFE039007
:1021F0005E48806801460290039804F08BFD0590CC
:102200005A48C0680190594840680090019904F00C
:1022100081FD03904D48006801905448006800908B
:10222000019904F077FD0290039904F0C7FB049034
:10223000059904F0C3FB4D490861444840684C4986
:1022400048604248806888604048006808600B9891
:102250000088B0F5966F73DD0C98002870D10B984C
:1022600000883238019004F0F5FC02903E48006985
:1022700001460190029804F0A1FB039036480069E2
:1022800001460290039804F099FB049037480069D6
:1022900001460390049804F045FE059004F0BEFC4E
:1022A00000B209900B9800883238019004F0D2FCFB
:1022B00002902D48006901460190029804F07EFBCF
:1022C00003902548006901460290039804F02AFE15
:1022D00004902648006901460390049804F06EFBC0
:1022E000059004F09BFC00B208900B9800883238EF
:1022F000019004F0AFFC02901B4800690146019078
:10230000029804F00FFE0390134800690146029002
:10231000039804F053FB04901448006901460390AD
:10232000049804F04BFB059004F078FC00B2079091
:102330000B9800883238019004F08CFC029019E070
:1023400035E00000E12E6542840100200C010020F0
:102350007001002000004842AC010020000048C28B
:1023600000409C4500409CC598010020C001002011
:10237000180100201448006901460190029804F0F9
:10238000D1FD03901148006901460290039804F0C2
:10239000C9FD04900E48006901460390049804F0BA
:1023A000C1FD059004F03AFC00B2069004E0002064
:1023B0000990089007900690DDE90632DDE90810E3
:1023C00001F0FCFA0DB000BD98010020AC01002026
:1023D000C0010020704700000120014908707047CB
:1023E0007D00002001200149087070477C0000201A
:1023F00010B500F001FA00F01FF800F045F800F009
:102400006BF80B49C88B0B4900F078FA0948008833
:102410000F280CD0012003F0D1F90549C88B0F21FA
:1024200000F0E0FA002003F0C9F901F099FB10BDBB
:10243000CC000020C600002010B50E4908880E49C7
:1024400000F05CFA0B4948880C4900F057FA09493A
:1024500088880B4900F052FA0748008800B2094901
:1024600008800648008800B248800548008800B20D
:10247000888010BDCC000020C6000020C8000020CD
:10248000CA000020BA00002010B50E49C8880E49C5
:1024900000F034FA0B4908890C4900F02FFA094979
:1024A00048890B4900F02AFA0748008800B2094918
:1024B00008800648008800B248800548008800B2BD
:1024C000888010BDCC000020C6000020C80000207D
:1024D000CA000020C000002010B54849888948493A
:1024E00000F00CFA4549C889464900F007FA43490B
:1024F000088A454900F002FA4148008804F0C2FB0E
:102500000446424904F0C8FA414908603D48008841
:1025100004F0B8FB04463F4904F0BEFA3C49486069
:102520003948008804F0AEFB3949886008460068E5
:102530003949086036484068486035488068886096
:102540002E49488A2E4900F0D9F92C49888A2D490C
:1025500000F0D4F92949C88A2B4900F0CFF928485E
:10256000008804F08FFB0446284904F095FA2B49B3
:1025700008602448008804F085FB0446254904F0DF
:102580008BFA264948602048008804F07BFB2349E9
:102590008860084600682249086020484068486012
:1025A0001E48806888601549088B154900F0A6F917
:1025B0001249488B134900F0A1F91049888B124940
:1025C00000F09CF90E48008804F05CFB04460F49BB
:1025D00004F062FA134908600A48008804F052FBCC
:1025E00004460C4904F058FA0E4948600648008831
:1025F00004F048FB0B49886010BD0000CC000020AF
:10260000C6000020C8000020CA00002000002041B1
:102610008401002000007A4470010020AC010020F9
:1026200098010020C001002010B5012003F0C6F879
:1026300043490868434904F06DFB044604F0EEFA90
:10264000414908803E494868404904F063FB04461C
:1026500004F0E4FA3E4908803949886804F0DEFA5B
:102660003C4908803C4988893749098800F0BAF913
:102670003949C8893649098800F0B4F93649088AC9
:102680003449098800F0AEF9344908682D4904F04E
:1026900041FB044604F0C2FA2B4908802F494868E0
:1026A0002A4904F037FB044604F0B8FA28490880A8
:1026B0002A49886804F0B2FA264908802649488ADF
:1026C0002149098800F08EF92349888A2049098820
:1026D00000F088F92049C88A1E49098800F082F96B
:1026E0001F490868174904F015FB044604F096FAE0
:1026F000154908801A494868144904F00BFB044640
:1027000004F08CFA124908801549886804F086FAAA
:10271000104908801049088B0B49098800F062F9BC
:102720000D49488B0A49098800F05CF90A49888BF1
:102730000849098800F056F9002003F03FF810BD61
:102740008401002000002041C600002000007A44DF
:10275000C8000020CA000020CC000020AC010020EE
:10276000C0010020034606210622124801881248B3
:102770000288ABB1012B1BD13AB94EF6EE60814213
:1027800001D1002070470120FCE739B94EF6EE6018
:10279000824201D10120F5E70020F3E7AB20F1E709
:1027A00009B90020EEE70AB90120EBE7AB20E9E721
:1027B0000020E7E7000001080004010810B5042428
:1027C0000B4800F021F90446042C01D0204610BD2E
:1027D0000021074800F066F90446042C01D0204689
:1027E000F5E7044800F010F904462046EFE7000042
:1027F000000001080004010810B502F07BFE044649
:1028000000F0A0FE204610BD2DE9F84F074689468E
:102810000425DFF8D8A0364800904FF000080024C7
:1028200000264FF0000B0020FFF79CFF8046B8F118
:10283000010F05D1DFF8B8A02C48401C00900CE037
:10284000B8F1000F06D1DFF8A4A00AF1010A284868
:10285000009002E0AB20BDE8F88F4EF6EE615046E6
:1028600000F020F90546042D01D02846F3E700F0DA
:1028700069FE4946384600F071F80646042E01D03C
:102880003046E8E700241CE01A4830F81400B8424B
:1028900015D0184931F81400174900F02FF8834675
:1028A000BBF1010F0BD0134931F81400124909880C
:1028B00000F054F80646042E01D03046CBE7601CE9
:1028C00084B2102CE0DB009800F09EF80546042D41
:1028D00001D02846BFE70021504600F0E3F8054646
:1028E000042D01D02846B6E72846B4E7FF030108C7
:1028F00000000108CC000020EC0000202DE9F0478A
:1029000006460F46002545F255584FF00109114C77
:10291000A2460020FFF726FF0546AB2D01D1BDE8FA
:10292000F0870C4800EB852A0B480068841E0AE0FB
:10293000B4F80080B04505D134F8020C38804FF06F
:10294000000904E0241F0AF102008442F0D800BF0D
:102950004846E4E700000108F00000202DE9F041BE
:1029600004460F4604250026DFF86C800120FFF79F
:10297000F9FE0646AB2E01D1BDE8F081701C174967
:1029800001EB802821E0164800680068401CB8B9B7
:1029900039461348006800F085F80546042D01D03B
:1029A0002846E9E721460E480068801C00F07AF8C6
:1029B00005460B480068001D094908602846DBE70A
:1029C00007480068001D0649086005480068404542
:1029D000D9D38020D0E70000FF070108FEFF0008E0
:1029E000F000002070B505460E460024314628460A
:1029F000FFF7B4FF0446802C04D131462846FFF788
:102A000003FF0446204670BD30B5044604254FF44C
:102A1000302000F07FF80546042D17D10C480069DE
:102A200040F002000A49086108464461006940F02C
:102A3000400008614FF4302000F06CF8054604486F
:102A4000006941F6FD71084001490861284630BD22
:102A50000020024004200B49C96801F0010109B1BE
:102A600001200EE00749C96801F0040109B1022004
:102A700007E00449C96801F0100109B1032000E032
:102A800004207047002002400549096821F0100128
:102A9000034A116011460968014311607047000044
:102AA0000020024070B504460D460426F00200F0F6
:102AB00031F80646042E11D10948006940F00100A2
:102AC000074908612580F00200F024F80646044812
:102AD000006941F6FE71084001490861304670BD49
:102AE0000020024001460020034A106800F0380030
:102AF000084310607047000000200240024803496C
:102B00004860034848607047230167450020024041
:102B1000AB89EFCD00B502460423FFF79BFF0346C8
:102B200003E0FFF797FF0346521E012B01D1002A55
:102B3000F7D102B90523184600BD2DE9F041024640
:102B400000250026002000230024002791F803C060
:102B50000CF00F0591F803C00CF0100CBCF1000F45
:102B600003D091F802C04CEA050591F800C0BCF111
:102B7000000F31D0146800202BE04FF0010C0CFA4C
:102B800000F3B1F800C00CEA03069E4220D1830096
:102B90004FF00F0C0CFA03F7BC4305FA03FC4CEAA8
:102BA000040491F803C0BCF1280F06D14FF0010CCA
:102BB0000CFA00FCC2F814C00AE091F803C0BCF1A2
:102BC000480F05D14FF0010C0CFA00FCC2F810C000
:102BD000401C0828D1D31460B1F800C0BCF1FF0F2D
:102BE00034DD546800202EE000F1080C4FF001089D
:102BF00008FA0CF3B1F800C00CEA03069E4221D19A
:102C000083004FF00F0C0CFA03F7BC4305FA03FCEA
:102C10004CEA040491F803C0BCF1280F05D100F17F
:102C2000080C08FA0CF8C2F8148091F803C0BCF143
:102C3000480F07D100F1080C4FF0010808FA0CF812
:102C4000C2F81080401C0828CED35460BDE8F08143
:102C5000416170472DE9F04F89B082463E480168D6
:102C6000006804F057F805903C480168006804F0DB
:102C700051F803903A480168006804F04BF801905D
:102C800038480168006804F045F80090019904F0A4
:102C900049F90290039904F045F90490059903F06D
:102CA0008DFE834603F05EFE06460F462A48016805
:102CB0002A48006804F02EF8049029480168294841
:102CC000006804F027F80390049903F077FE4FF0B2
:102CD0008041059004F01EF8834603F043FE32461F
:102CE0003B46CDE9060102F0BDFF81F000410446FC
:102CF0004FF000521C4B03F05BFB804603F01EF9C3
:102D0000CAF80800144801681548006804F002F881
:102D10000690124801681348006803F0FBFF059015
:102D2000069904F0FFF84FF08041079003F0F2FF9E
:102D3000834603F017FE064602F04CFD80464FF036
:102D40000052094B03F034FB044603F0F7F8CAF8CD
:102D5000040009B0BDE8F08F4C00002048000020BE
:102D60004400002040000020DCA54C4070B5044623
:102D70000D46B4F9000003F06DFF06460B4903F061
:102D8000C9FF2860B4F9020003F064FF0646074952
:102D900003F0C0FF6860B4F9040003F05BFF06466F
:102DA000024903F0B7FFA86070BD000089A18B3A0B
:102DB000F0B5024600230024002500201688234F8A
:102DC000DFF88CC09CF800C027F81C605688214FA3
:102DD000DFF87CC09CF800C027F81C6096881E4F66
:102DE000DFF86CC09CF800C027F81C6000BF0DE045
:102DF000164E36F910603344164E36F910603444DE
:102E0000154E36F910603544461CF0B20228EFDB4F
:102E10001E4603EBD6777F103FB20F80264604EBA9
:102E2000D6777F103FB24F802E4605EBD6777F10C6
:102E30003FB28F80064E3678761C054F3E703E4678
:102E40003678022E01D100263E70F0BD3000002001
:102E50003C000020340000203800002000BFFEE7C6
:102E600010B54FF480600F490860042000F062F94B
:102E700000BF4FF400600B490860042000F05AF9CD
:102E800000BF4FF480600749091F0860042000F06C
:102E900051F900BF4FF4806002490860042000F03F
:102EA00049F910BD140C014008B50121082000F0BB
:102EB000B7FE4FF48060ADF8000003208DF80200EB
:102EC00014208DF8030069460848FFF736FE4FF4DA
:102ED0000060ADF8000003208DF8020014208DF88A
:102EE000030069460148FFF728FE08BD000C0140B9
:102EF00010B54FF480600E490860042000F01AF904
:102F00004FF400600A49091F0860042000F012F91C
:102F10004FF480600649091F0860042000F00AF998
:102F20004FF4806002490860042000F003F910BDEE
:102F3000140C014070B508250024280217490860C8
:102F4000042000F0F7F819E04FF480601349091DE0
:102F50000860042000F0EEF800BF4FF480600F49D5
:102F60000860042000F0E6F86006040E0B480838FC
:102F7000006800F4006008B144F001042800A5F1E5
:102F80000101CDB2E0D14FF480600449091D086011
:102F9000042000F0CFF8204670BD0000100C014066
:102FA00010B54FF480601C490860042000F0C2F89E
:102FB0004FF400601849091F0860042000F0BAF8B7
:102FC0004FF480601449091F0860042000F0B2F833
:102FD00011480C38006808B9012000E0002000F416
:102FE000006008B1002010BD4FF400600A4908607D
:102FF000042000F09FF808480C38006800F40060D6
:1030000008B10020EFE74FF4006003490860042096
:1030100000F090F80120E6E7140C014010B54FF4E1
:1030200080600E490860042000F084F84FF40060CE
:103030000A490860042000F07DF84FF480600749D9
:10304000091F0860042000F075F84FF40060034980
:10305000091F0860042000F06DF810BD140C014039
:1030600010B54FF4806016490860042000F062F843
:103070004FF400601249091F0860042000F05AF85C
:103080004FF480600E49091F0860042000F052F8D8
:103090000B480C38006800F4006040B14FF48060C9
:1030A00007490860042000F045F8002010BD4FF4E7
:1030B000806003490860042000F03CF80120F5E737
:1030C000140C014070B50446082523E04FF48060DD
:1030D00017490860042000F02DF804F0800040B18A
:1030E0004FF400601249091F0860042000F022F824
:1030F00006E04FF400600E490860042000F01AF862
:103100006006040E4FF480600949091F086004201E
:1031100000F010F82800A5F10101CDB2D6D14FF48E
:10312000806003490860042000F004F870BD0000CE
:10313000140C014000E0401E0028FCD17047000044
:103140002DE9FF4F8FB0064617461C46DDE91C8966
:10315000F04800680990F0480568F0480068089059
:10316000EF48006807904946484603F0D3FD4146C2
:103170000590404603F0CEFD21460390204603F023
:10318000C9FD0290039903F019FC0490059903F01E
:1031900015FC069002F034FE0E9020460E9903F0C6
:1031A000B9FD044640460E9903F0B4FD80464846FA
:1031B0000E9903F0AFFD8146D8480168D5480068F4
:1031C00003F0A8FD0590D6480168D348006803F0D5
:1031D000A1FD0490059903F0A5FE4FF080410690F3
:1031E00003F098FD0D90CE480168CC48006803F0CC
:1031F00091FD0590C8480168C648006803F08AFD43
:103200000490059903F0DAFB4FF08041069003F03B
:1032100081FD0C90C2480168006803F07BFD0690B8
:10322000BE480168006803F075FD0490BA48016863
:10323000006803F06FFD0290B6480168006803F073
:1032400069FD0190029903F06DFE0390049903F06B
:1032500069FE0590069903F0B1FB0B9048460C9966
:1032600003F058FD069040460B9903F053FD05907E
:10327000069903F057FE824620460B9903F04AFD5B
:10328000069048460D9903F045FD0590069903F018
:1032900049FE834640460D9903F03CFD06902046CA
:1032A0000C9903F037FD0590069903F03BFE0A9058
:1032B0009C49504603F02EFD06909B4801680698F5
:1032C00003F07CFB984908609649584603F022FDBC
:1032D000069096480168069803F070FB93490860D1
:1032E00090490A9803F016FD0690914801680698E7
:1032F00003F064FB8E49086051464FF07E5003F0A6
:1033000009FD3146059003F059FB06908648016897
:10331000069803F053FB064659464FF07E5003F0E3
:10332000F9FC0590109903F049FB06907F4801686D
:10333000069803F043FB10904FF07E500A9903F07B
:10334000E9FC3946059003F039FB0690784801689E
:10335000069803F033FB07463946079803F0DAFC7A
:1033600004901099089803F0D5FC029085F0004075
:103370003146009003F0CEFC0190029903F0D2FD9B
:103380000390049903F0CEFD6A49059003F0C2FC56
:103390000690099903F012FB5E490860109907989E
:1033A00003F0B8FC39460490089803F0B3FC02908F
:1033B0003046099903F0AEFC0190029903F0FEFA41
:1033C0000390049903F0AEFD5A49059003F0A2FC66
:1033D0002946069003F0F2FA4F49086030460799F3
:1033E00003F098FC39460490284603F093FC0290C1
:1033F0001099099803F08EFC0190029903F092FD58
:103400000390049903F0DAFA4A49059003F082FC2C
:103410000690089903F0D2FA4049086030460899AE
:1034200003F078FC04902846109903F073FC3946A9
:103430000290099803F06EFC0190029903F0BEFA25
:103440000390049903F06EFD3A49059003F062FC85
:103450000690079903F0B2FA3149086008460168FE
:10346000006803F057FC05902C480168006803F0E1
:1034700051FC039028480168006803F04BFC019060
:1034800024480168006803F045FC0090019903F0AE
:1034900095FA0290039903F091FA0490059903F0CC
:1034A0008DFA069002F0ACFC0E901A480E99006856
:1034B00003F030FC1749086017480E99006803F0C4
:1034C00029FC1549086015480E99006803F022FC94
:1034D0001249086012480E99006803F01BFC10495D
:1034E00008601549B1F9040003F0B4FB13490490D6
:1034F00003F010FC0B49059003F00CFC06901048FB
:103500000168069803F05AFA0D49086013B0BDE847
:10351000F08F000040000020440000204800002000
:103520004C0000206F12833A50000020540000200D
:10353000580000206F12033AB4000020F1FF793DDB
:103540006401002070B5042600240120FFF70AF969
:103550000446AB2C06D1124800EB842011490860C8
:10356000AB2070BD0E4800EB84200E490860601C43
:103570000B49891E01EB80250CE00A4800680068B1
:10358000401C10B904263046EBE706480068001DD1
:103590000449086003480068A842EED38020E0E7B1
:1035A00000000108F000002000B5254840782449BB
:1035B000097840EA012023490988401A00B22249CB
:1035C00008801F48C0781E49897840EA01201D49BB
:1035D0004988401A00B21C49488019484079184966
:1035E000097940EA012017498988401A00B2164932
:1035F00088801348407A1249097A40EA0120134929
:103600000988401A00B2124908800D48C07A0C4956
:10361000897A40EA01200D494988401A00B20C49D4
:1036200048800748407B0649097B40EA012007495A
:103630008988401A00B20649888000F071F800BD00
:103640002E010020BA000020A2000020C0000020AF
:10365000A800002010B5752000F06EFD682804D089
:103660001AA001F027FE002010BD1EA001F022FECE
:1036700000216B2000F086FD44F62060FFF75AFD24
:103680000021192000F07EFD44F62060FFF752FD76
:1036900000211A2000F076FD44F62060FFF74AFD75
:1036A00018211B2000F06EFD44F62060FFF742FD5C
:1036B0001F211C2000F066FD44F62060FFF73AFD54
:1036C00010A001F0F7FD0120CEE700000D0A204315
:1036D000616E206E6F742066696E64204D505536A1
:1036E000303530000D0A2046696E64204D50553645
:1036F000303530207375636365737366756C6C79F0
:10370000000000000D0A204D50553630353020495C
:103710006E697420436F6D706C6574650000000005
:103720005C480078002858D05B48007870B90020C9
:103730005A4908804880888059490860594908607A
:103740005949086001205449087070475248007870
:10375000401C514908705548B0F9000050490968AB
:1037600008444F4908605148B0F902004D490968C2
:1037700008444C4908604D48B0F904004A490968BA
:1037800008444949086044480078FB2825D142484C
:103790000078401E4049087041480068097890FB55
:1037A000F1F000B23D4908803E4800683A49097886
:1037B00090FBF1F000B2394948803B480068364937
:1037C000097890FBF1F0A0F5006000B233498880E1
:1037D0000020314908702F490870354800780028CA
:1037E00056D03448007870B90020334908804880AA
:1037F00088803249086032490860324908600120F7
:103800002C490870A1E72B480078401C2949087012
:103810002D48B0F900002949096808442749086083
:103820002948B0F90200264909680844244908607B
:103830002548B0F904002349096808442149086073
:103840001C480078FB2823D11A480078401E1949EB
:1038500008701A480068097890FBF1F000B2164928
:103860000880174800681349097890FBF1F000B20E
:1038700011494880134800680E49097890FBF1F01F
:1038800000B20D49888000200A4908700849087074
:1038900000BF5AE77D00002090000020BA00002001
:1038A00084000020880000208C000020A20000205E
:1038B0007C000020A0000020C00000209400002018
:1038C000980000209C000020A800002010B50E24C5
:1038D000FFF766FB08B9002010BDD020FFF7F2FB10
:1038E000FFF7BEFB18B9FFF799FB0020F4E73B2078
:1038F000FFF7E8FBFFF7B4FBFFF752FBD120FFF720
:10390000E1FBFFF7ADFB07E0FFF714FBC4F10D018E
:10391000084A5054FFF7A4FA601EC0B20400F3D165
:10392000FFF708FB03494873FFF7E2FAFFF776FB5E
:103930000120D1E72E01002010B53B2000F0FCFB58
:103940001C4908703C2000F0F7FB1A4948703D20E4
:1039500000F0F2FB174988703E2000F0EDFB15499E
:10396000C8703F2000F0E8FB12490871402000F0C9
:10397000E3FB10494871432000F0DEFB0D4908725B
:10398000442000F0D9FB0B494872452000F0D4FBDD
:1039900008498872462000F0CFFB0649C8724720CC
:1039A00000F0CAFB03490873482000F0C5FB014939
:1039B000487310BD2E01002000BFFEE72DE9F04145
:1039C00004460D4616461F46B4F5FA6F01DD4FF466
:1039D000FA64B4F57A7F01DA4FF47A74B5F5FA6FC8
:1039E00001DD4FF4FA65B5F57A7F01DA4FF47A75A7
:1039F000B6F5FA6F01DD4FF4FA66B6F57A7F01DAB3
:103A00004FF47A76B7F5FA6F01DD4FF4FA67B7F540
:103A10007A7F01DA4FF47A7710490C80091D0D8006
:103A2000091D0E80091D0F800C4801880CA001F0B3
:103A300041FC0A48001D01880EA001F03BFC07482C
:103A40000830018810A001F035FC04480C300188D2
:103A500012A001F02FFCBDE8F08100003408004006
:103A60000954494D342D3E43435231203D202564B5
:103A7000000000000954494D342D3E43435232208A
:103A80003D202564000000000954494D342D3E437B
:103A9000435233203D202564000000000954494D65
:103AA000342D3E43435234203D2025640D0A00004E
:103AB0007047000070B5002100230F22C47804B3C2
:103AC000154C246804F4E064C4F5E064210AC1F1F3
:103AD0000403CA40447804FA03F184781440214373
:103AE00009010E4C0678A155047804F01F05012445
:103AF000AC4005786D11AD0005F1E025C5F8004139
:103B000009E0047804F01F050124AC40044D067858
:103B1000761145F8264070BD0CED00E000E400E0B1
:103B200080E100E002490143024A11607047000051
:103B30000000FA050CED00E008B54FF4A060FFF7B7
:103B4000F1FF1D208DF8000000208DF801000120FC
:103B50008DF802008DF803006846FFF7ABFF08BD43
:103B600010B5154815490860154848604FF0824067
:103B70008860114813490860114848604FF082403E
:103B80008860114811490860002048604FF080406B
:103B900088600D480E490860002048604FF0804062
:103BA00088604FF082400B4908600B48486088608D
:103BB000FEF73AFD10BD0000CDCC9C4084010020F2
:103BC0000AD7A33C700100203333B33FAC0100207F
:103BD00098010020C0010020CDCCCC3D70470000F2
:103BE00029B1064AD2690243044BDA6104E0034A70
:103BF000D2698243014BDA61704700000010024035
:103C000029B1064A12690243044B1A6104E0034ACF
:103C100012698243014B1A61704700000010024094
:103C200029B1064A92690243044B9A6104E0034AAF
:103C300092698243014B9A61704700000010024074
:103C400029B1064AD2680243044BDA6004E0034A11
:103C5000D2688243014BDA607047000000100240D6
:103C600010B500F02FF84FF4803000F0EDF800F0C0
:103C700049F90446012C24D14FF4E011000400F06E
:103C800027F9002000F0D4F8A00200F003F900208A
:103C900000F00CF90220FEF725FF1020FEF7F4FEDD
:103CA000012000F00FF900BF392000F09BF8002838
:103CB000FAD0022000F01AF900BF00F0B1F808288D
:103CC000FBD110BD0F48006840F001000D490860AD
:103CD000084640680C4908400A49486008460068A0
:103CE0000A490840074908600846006820F4802017
:103CF00008600846406820F4FE0048604FF41F004A
:103D000088607047001002400000FFF8FFFFF6FED9
:103D100030B500210022002400232D4D6D6805F0F0
:103D20000C0121B1042905D0082923D105E0294D32
:103D3000056022E0274D05601FE0254D6D6805F404
:103D40007012234D6D6805F48034022505EB924214
:103D50001CB9214D554305600BE01D4D6D6805F400
:103D600000351DB11C4D5543056002E0194D55430A
:103D7000056002E0174D056000BF00BF144D6D687F
:103D800005F0F0010909154D6B5C0568DD404560E3
:103D90000F4D6D6805F4E061090A104D6B5C4568D4
:103DA000DD4085600A4D6D6805F46051C90A0B4D10
:103DB0006B5C4568DD40C560054D6D6805F44041AC
:103DC000890B074D6B5CC568B5FBF3F5056130BD2C
:103DD0000010024000127A0000093D00000000209F
:103DE0001000002010B501460022002300204A11D7
:103DF000012A02D1094C236806E0022A02D1074CAD
:103E0000236A01E0054C636A01F01F02012494401B
:103E10001C400CB1012000E0002010BD0010024049
:103E20000248406800F00C0070470000001002409B
:103E300001460020034A506820F0F000084350601B
:103E400070470000001002401149096821F48031D8
:103E50000F4A11601146096821F480211160B0F504
:103E6000803F03D0B0F5802F0ED106E008490968E5
:103E700041F48031064A116007E00549096841F4C0
:103E8000A021034A116000E000BF00BF704700009E
:103E90000010024001460020034A506820F4E06010
:103EA00008435060704700000010024001460020A7
:103EB000034A506820F4605040EAC10050607047E7
:103EC00000100240014908667047000000004242AD
:103ED00002460020044B586820F47C1042EA01039B
:103EE0001843014B58607047001002400146002003
:103EF000034A506820F003000843506070470000F8
:103F00000010024038B5002000900024002500BFBA
:103F10003120FFF767FF05460098401C009000988D
:103F2000B0F5A06F01D0002DF2D03120FFF75AFF7D
:103F300008B1012400E00024204638BD3A4800784A
:103F400000F08000B8B13848007800F03F003749F1
:103F5000C8800846C0884FF6FF7101EA0040334927
:103F6000C8800846C0883249098808442F49C8805B
:103F700000202D4908702F48007800F08000B8B16B
:103F80002C48007800F03F00284988800846808847
:103F90004FF6FF7101EA0040244988800846808876
:103FA0002549098808442149888000202149087052
:103FB0002248007800F08000B8B12048007800F076
:103FC0003F001A490880084600884FF6FF7101EA51
:103FD00000401649088008460088194909880844A5
:103FE000124908800020154908701648007800F032
:103FF0008000B8B11348007800F03F000B494880BA
:10400000084640884FF6FF7101EA004007494880A2
:10401000084640880C490988084404494880002023
:104020000849087070470000620000205401002019
:104030006400002066000020680000206A00002064
:104040006C0000206E00002070000020704710B54A
:1040500000F002F810BD00000CB5002001900090A7
:104060003348006840F480303149086000BF304870
:10407000006800F4003000900198401C0190009806
:1040800018B90198B0F5A06FF1D12948006800F483
:10409000003010B10120009001E000200090009855
:1040A000012843D12348006840F0100021490860EE
:1040B0000846006820F0030008600846006840F0E9
:1040C000020008601A48406819494860084640687C
:1040D00048600846406840F4806048600846406890
:1040E00020F47C1048600846406840F4E8104860BE
:1040F0000846006840F08070086000BF0C48006807
:1041000000F000700028F9D00948406820F0030052
:10411000074948600846406840F00200486000BF18
:104120000348406800F00C000828F9D10CBD0000DD
:10413000001002400020024070B50446FEF730FF38
:1041400008B9002070BDD020FEF7BCFFFEF788FF45
:1041500018B9FEF763FF0020F4E72046FEF7B2FF30
:10416000FEF77EFFFEF71CFFD120FEF7ABFFFEF748
:1041700077FFFEF7DFFE0546FEF7BAFEFEF74EFFBD
:104180002846DFE770B505460C46FEF709FF08B97B
:10419000002070BDD020FEF795FFFEF761FF18B933
:1041A000FEF73CFF0020F4E72846FEF78BFFFEF702
:1041B00057FF2046FEF786FFFEF752FFFEF72EFF61
:1041C0000120E6E77047000010B51348006840F092
:1041D00001001149086008464068104908400E492E
:1041E0004860084600680E4908400B4908600846C8
:1041F000006820F4802008600846406820F4FE0033
:1042000048604FF41F008860FFF721FF4FF0006007
:104210000449086010BD0000001002400000FFF8D3
:10422000FFFFF6FE08ED00E0F0B50C461546002253
:104230000021068C4FF6FE773E400684028B018CEF
:104240004FF60C7632407E1C06EA03162E433243AC
:10425000104EB0420ED0104EB0420BD0B0F1804F95
:1042600008D00E4EB04205D00D4EB04202D00D4ED9
:10427000B04206D14FF6FD76314044F0010631439D
:1042800005E04FF6F576314044F0010631430283F4
:104290000184F0BD002C01400034014000040040C6
:1042A00000080040000C0040F0B50C461546002206
:1042B00000210026078C4FF6EF7C07EA0C070784E5
:1042C000028B018C4FF6FF7707EA041640F6FF4792
:1042D0003A404FF6FF7707EA03373A434FF6FF7746
:1042E00007EA05273A43114FB8420ED0104FB842A3
:1042F0000BD0B0F1804F08D00E4FB84205D00E4F12
:10430000B84202D00D4FB84206D14FF6DF773940A0
:1043100046F01007394305E04FF65F77394044F027
:104320001007394302830184F0BD0000002C0140D6
:10433000003401400004004000080040000C004030
:10434000F0B50C461546002200210026078C4FF6DA
:10435000FF6C07EA0C070784828B018C4FF6FF770E
:1043600007EA04264FF60C773A404FF6FF7707EA44
:1043700003172F433A43114FB8420ED0104FB842A3
:104380000BD0B0F1804F08D00E4FB84205D00E4F81
:10439000B84202D00D4FB84206D14FF6FF57394010
:1043A00046F48077394305E04FF2FF57394044F433
:1043B0008077394382830184F0BD0000002C0140E6
:1043C000003401400004004000080040000C0040A0
:1043D000F0B50C461546002200210026078C4EF64B
:1043E000FF7C07EA0C070784828B018C4FF6FF776E
:1043F00007EA043640F6FF473A404FF6FF7707EAF0
:1044000005273A434FF6FF7707EA03373A43114F40
:10441000B8420ED0104FB8420BD0B0F1804F08D048
:104420000E4FB84205D00E4FB84202D00D4FB842E1
:1044300006D14DF6FF77394046F48057394305E001
:1044400047F6FF57394044F480573943828301844B
:10445000F0BD0000002C0140003401400004004089
:1044600000080040000C004030B585B005460C4601
:1044700001210846FFF7B4FB01210420FFF7D0FB20
:104480000F20ADF8100028208DF8130004A93C4837
:10449000FEF753FB0F213A48FEF7DAFB00203949BB
:1044A00008804880012088800020C880088101227F
:1044B0000321900700F0F6FB32494FF0804000F0F6
:1044C0009BFB04202F490880002048800120888021
:1044D0000020C880088101220521880700F0E2FB46
:1044E00028494FF0804000F087FB082025490880CC
:1044F00000204880012088800020C8800881012297
:104500000921880700F0CEFB1E494FF0804000F0E3
:1045100073FB0C201B490880002048800120888004
:104520000020C880088101221121880700F0BAFB11
:1045300014494FF0804000F05FFBADF80850ADF833
:1045400004400020ADF80A00ADF8060001A94FF0C4
:10455000804000F067FD1C208DF8000002208DF8DF
:10456000010000208DF8020001208DF8030068464C
:10457000FFF7A0FA0121880700F020FA05B030BD4E
:10458000000801402401002010B5B448007800F074
:10459000800000284FD10121880700F01CFBD0B11A
:1045A000AE48007800F04000A8B1AC48007800F0B8
:1045B0003F003F280AD1A948007840F08000A74971
:1045C00008704FF6FF70A649088004E0A348007801
:1045D000401CA24908700221480700F0FCFA50B3C1
:1045E0009E48007800F0400088B19C48007840F078
:1045F00080009A4908704FF0804000F0DFFA984937
:10460000088000214FF0804000F0A2FB13E0002062
:10461000924908709249088000214FF0804000F0D4
:10462000D3FC8E48007840F040008C49087002218D
:10463000480700F08DFB03214FF0804000F0BBF9EC
:104640008848007800F0800000284FD101218807B9
:1046500000F0C1FAD0B18348007800F04000A8B162
:104660008048007800F03F003F280AD17D4800785C
:1046700040F080007B4908704FF6FF707A4908804F
:1046800004E078480078401C764908700421080747
:1046900000F0A1FA50B37348007800F0400088B1F0
:1046A0007048007840F080006E4908704FF08040FC
:1046B00000F087FA6C49088000214FF0804000F03C
:1046C000ABFB13E0002067490870674908800021B0
:1046D0004FF0804000F078FC6248007840F04000E5
:1046E000604908700221480700F096FB0521880701
:1046F00000F061F95D48007800F0800000284FD19B
:104700000121880700F067FAD0B15848007800F01E
:104710004000A8B15548007800F03F003F280AD17A
:104720005248007840F08000504908704FF6FF7002
:104730004F49088004E04D480078401C4B49087000
:104740000821C80600F047FA50B34848007800F046
:10475000400088B14548007840F080004349087027
:104760004FF0804000F030FA4149088000214FF0BE
:10477000804000F0BBFB13E000203C4908703C493E
:10478000088000214FF0804000F01EFC3748007880
:1047900040F04000354908700221480700F0A6FBB0
:1047A0000921880700F007F93248007800F08000FE
:1047B000D0BB0121880700F00EFAD0B12D48007857
:1047C00000F04000A8B12B48007800F03F003F28DF
:1047D0000AD12848007840F08000264908704FF63A
:1047E000FF702549088004E022480078401C2149D8
:1047F00008701021880600F0EEF9A8B11D48007875
:1048000000F0400088B11B48007840F08000194952
:1048100008704FF0804000F0DAF917490880002155
:104820004FF0804000F0B6FB13E000201149087003
:104830001149088000214FF0804000F0C5FB0D4871
:10484000007840F040000B4908700221480700F052
:10485000A1FB1121880700F0AEF810BD6200002016
:104860006400002066000020680000206A0000202C
:104870006C0000206E0000207000002011480088AD
:1048800000F00100D8B14FF6FE700E4908800E48C6
:10489000007800B970470D480068401C0B4908605B
:1048A0000B480078401C0A4908700A480078401CF0
:1048B0000849087008480078401C0749087000BF84
:1048C000E8E7000010040040170000205C00002012
:1048D00014000020150000201600002030B589B01B
:1048E00005460C4601210420FFF77AF90121082032
:1048F000FFF796F94FF47070ADF8200018208DF88E
:10490000230003208DF8220008A92148FEF715F99D
:10491000ADF80850ADF804400020ADF80600ADF841
:104920000A0001A91B4800F07DFB6020ADF81000D3
:104930000020ADF818000120ADF8120004A91548B8
:1049400000F0BAF90821134800F00BFA04A9114845
:1049500000F010FA08210F4800F06BFA04A90D4886
:1049600000F074FA08210B4800F0CDFA04A90948B8
:1049700000F0D2FA0821074800F019FB0121054890
:1049800000F00AF80121034800F018F809B030BD22
:10499000000C01400008004021B1028842F0800272
:1049A000028004E002884FF67F731A40028070474D
:1049B000CA4302827047CA430282704721B102880B
:1049C00042F00102028004E002884FF6FE731A40B2
:1049D0000280704710B504466848844208D101211E
:1049E000C014FFF72DF90021E014FFF729F9C4E006
:1049F000B4F1804F08D101210846FFF701F90021E9
:104A00000120FFF7FDF8B8E05D48844208D101219C
:104A10000220FFF7F5F800210220FFF7F1F8ACE0E3
:104A20005848844208D101210420FFF7E9F8002109
:104A30000420FFF7E5F8A0E05348844208D10121A3
:104A40000820FFF7DDF800210820FFF7D9F894E0EF
:104A50004E48844208D101211020FFF7D1F80021EF
:104A60001020FFF7CDF888E04948844208D10121A1
:104A70002020FFF7C5F800212020FFF7C1F87CE0D7
:104A80004448844208D101214014FFF7D9F800219D
:104A90006014FFF7D5F870E03F48844209D1012146
:104AA000C804FFF7CDF800214FF40020FFF7C8F845
:104AB00063E03A48844209D101210805FFF7C0F8B4
:104AC00000214FF48010FFF7BBF856E034488442D1
:104AD00009D101214805FFF7B3F800214FF4001078
:104AE000FFF7AEF849E02F48844208D10121402069
:104AF000FFF786F800214020FFF782F83DE02A48C2
:104B0000844208D101218020FFF77AF8002180201B
:104B1000FFF776F831E02548844208D1012180155D
:104B2000FFF76EF80021A015FFF76AF825E020488E
:104B3000844209D101210804FFF782F800214FF4D3
:104B40008030FFF77DF818E01A48844209D101212E
:104B50004804FFF775F800214FF40030FFF770F8B4
:104B60000BE01548844208D101218804FFF768F85A
:104B700000214FF48020FFF763F810BD002C0140A6
:104B80000004004000080040000C004000100040FD
:104B90000014004000340140004C0140005001402E
:104BA0000054014000180040001C0040002000405C
:104BB0000040014000440140004801400146888E09
:104BC00070470146088F70470146888F704701463D
:104BD000B1F84000704730B50246002000230024A1
:104BE000158A05EA0103958905EA010413B10CB1A0
:104BF000012000E0002030BD70B505460C46244879
:104C000085420ED0234885420BD0B5F1804F08D0A5
:104C10002148854205D02148854202D0204885425E
:104C200000D100E000BF208850B92389A2886188A4
:104C30002846FFF7F9FAE188284600F0C7F925E091
:104C4000208804280AD12389A28861882846FFF792
:104C50002BFBE188284600F0C2F917E020880828DD
:104C60000AD12389A28861882846FFF769FBE18879
:104C7000284600F0C1F909E02389A2886188284606
:104C8000FFF7A6FBE188284600F0BFF970BD0000E1
:104C9000002C0140003401400004004000080040A6
:104CA000000C00401AB183890B43838102E08389A1
:104CB0008B4383817047000070B5002400220023DD
:104CC000058C4FF6FE7635400584028C8388048B74
:104CD0004FF68F752C40B51E2C400D882C43751E49
:104CE0002A400D892A434D882A43144DA8420BD0EF
:104CF000134DA84208D0134DA84205D0124DA8422A
:104D000002D0124DA84213D14FF6F7752A404D89B3
:104D10002A434FF6FB752A408D882A434FF6FF65DC
:104D20002B404FF6FF552B408D892B43CD892B43CC
:104D300083800483CD888586028470BD002C014069
:104D4000003401400040014000440140004801405F
:104D50000A460021018C4FF6FD731940114301846E
:104D600070470A460021018B4FF6F7731940114333
:104D70000183704770B5002400220023058C4FF694
:104D8000EF7635400584028C8388048B48F6FF75E6
:104D90002C404FF6FF452C400D884FF6FF7606EA73
:104DA00005252C434FF6DF752A400D8906EA0515C7
:104DB0002A434D8806EA05152A43154DA84202D01C
:104DC000144DA8421DD14FF67F752A404D894FF6EC
:104DD000FF7606EA05152A434FF6BF752A408D88EF
:104DE00006EA05152A434FF6FF352B404FF2FF75B3
:104DF0002B408D8906EA85052B43CD8906EA85057A
:104E00002B4383800483CD880587028470BD000016
:104E1000002C0140003401400A460021018C4FF66D
:104E2000DF7319404FF6FF7303EA0213194301843D
:104E300070470A460021018B4FF2FF7319404FF66D
:104E4000FF7303EA022319430183704770B50024FE
:104E500000220023058C4FF6FF6635400584028C46
:104E60008388848B4FF68F752C404FF6FC752C4051
:104E70000D882C434FF6FF552A400D894FF6FF76DB
:104E800006EA05252A434D8806EA05252A43154DDD
:104E9000A84202D0144DA8421DD14FF2FF752A40FE
:104EA0004D894FF6FF7606EA05252A434FF6FF3572
:104EB0002A408D8806EA05252A434EF6FF752B40C9
:104EC0004DF6FF752B408D8906EA05152B43CD89DC
:104ED00006EA05152B4383808483CD888587028469
:104EE00070BD0000002C0140003401400A46002142
:104EF000018C4FF6FF5319404FF6FF7303EA02236C
:104F00001943018470470A460021818B4FF6F773DD
:104F1000194011438183704770B50022002300249B
:104F2000058C4EF6FF7635400584038C8488828B91
:104F300048F6FF752A404FF6FF452A400D884FF688
:104F4000FF7606EA05252A434DF6FF752B400D89AD
:104F500006EA05352B434D8806EA05352B430B4DF4
:104F6000A84202D00A4DA84208D14BF6FF752C404A
:104F70008D894FF6FF7606EA85152C43848082835F
:104F8000CD88A0F84050038470BD0000002C014083
:104F9000003401400A460021018C4DF6FF73194090
:104FA0004FF6FF7303EA02331943018470470A4640
:104FB0000021818B4FF2FF7319404FF6FF7303EA14
:104FC000022319438183704781847047028B4FF617
:104FD000F3731A400283028B0A4302837047028BE9
:104FE0004FF2FF331A400283028B4FF6FF7303EA3E
:104FF00001231A4302837047828B4FF6F3731A40E2
:105000008283828B0A4382837047828B4FF2FF3305
:105010001A408283828B4FF6FF7303EA01231A43FF
:1050200082837047002202881D4B98420ED01D4B90
:1050300098420BD0B0F1804F08D01B4B984205D05E
:105040001A4B984202D01A4B984204D14FF68F73F4
:105050001A404B881A43174B984207D0164B984278
:1050600004D04FF6FF431A40CB881A4302808B8846
:1050700083850B8803850A4B98420BD0094B9842D5
:1050800008D00E4B984205D00D4B984202D00D4BE4
:10509000984201D10B7A0386012383827047000076
:1050A000002C014000340140000400400008004092
:1050B000000C00400010004000140040004001407F
:1050C00000440140004801407CB5FEF7FFFB30B9C9
:1050D00019480068401C18490860FEF72DFCFEF7CF
:1050E00063FA16491648FCF74DFD16491648FDF7B8
:1050F0005FFE16491348FDF739FE1049B1F9040067
:1051000001F0A8FD04460D49B1F9020001F0A2FD2D
:1051100005460A49B1F9000001F09CFD06460B4B1B
:10512000CDE900549A68596818683346FEF708F8C4
:10513000FEF704FF7CBD000080000020AE000020D0
:10514000A2000020B4000020A80000204801002098
:1051500010B50448FDF77EFD03490248FCF7ACFD9D
:1051600010BD0000640100205401002010B5034868
:10517000027803490348FCF7D1FE10BD1800002057
:1051800054010020480100203EB5044601210220C0
:10519000FEF726FD124804801248FFF71BFC124858
:1051A00090FBF4F080B2ADF804004720ADF80000A9
:1051B0000020ADF80600ADF8020069460948FFF787
:1051C00031FF01210748FFF7F3FB01221146054893
:1051D000FFF768FD01210348FFF7F0FB3EBD00002B
:1051E000600000200004004040420F0010B540F273
:1051F0002551064800F0A3F838B1044800F05AF9E8
:10520000C4B2214602A0FBF751F810BD003801409E
:105210002563000010B586B00446012144F2040065
:10522000FEF7FEFC4FF40070ADF8140003208DF87B
:10523000160018208DF8170005A91C48FDF77DFC05
:105240004FF48060ADF8140004208DF8170005A914
:105250001648FDF772FC25208DF8000003208DF81C
:1052600001008DF8020001208DF803006846FEF76A
:1052700021FC01940020ADF80800ADF80A00ADF85B
:105280000C00ADF810000C20ADF80E0001A9084884
:1052900000F0A4F8002240F22551054800F079F80A
:1052A0000121034800F032F806B010BD00080140AB
:1052B000003801400FB410B5B4B0002437A80090F6
:1052C000C92101A8009B369AFAF7D6FF0EE02046C6
:1052D000621CD4B201AA115C0B4800F0F0F800BFC8
:1052E0004021094800F01EF80028F9D0C82C04DA43
:1052F00001A8FBF7D5F8A042E9D80020009034B00F
:1053000010BC5DF814FB00000038014021B1828917
:1053100042F40052828104E082894DF6FF731A4004
:105320008281704702460020B1F5007F00D100BFA6
:1053300013880B400BB1012000E00020704770B5CE
:105340000246002400230025002040F66A16B142E0
:1053500000D100BFC1F3421501F01F03012606FA78
:1053600003F3012D02D19689334006E0022D02D1CC
:10537000168A334001E0968A33400C12012606FA61
:1053800004F41688344013B10CB1012000E0002071
:1053900070BDF0B50346002400260025002040F62D
:1053A0006A17B94200D100BF1846C1F3421401F098
:1053B0001F06012707FA06F5012C01D10C3004E085
:1053C000022C01D1103000E014301AB107682F43CD
:1053D000076002E00768AF430760F0BD2DE9F047C2
:1053E00086B005460E460024A24600BFA14600270F
:1053F000B08900B100BF2F462C8A4CF6FF700440E4
:10540000F08804432C82AC894EF6F3100440B08837
:1054100031890843718908430443AC81AC8A4FF653
:10542000FF400440B0890443AC8201A8FEF770FC41
:105430001F48874202D1DDF810A001E0DDF80CA082
:10544000A88900F4004040B10AEBCA0000EB0A1042
:1054500031684900B0FBF1F807E00AEBCA0000EB45
:105460000A1031688900B0FBF1F86420B8FBF0F055
:1054700004012009642101FB1089A88900F400407F
:1054800040B1322000EBC900B0FBF1F000F00700A2
:10549000044308E0322000EB09106421B0FBF1F076
:1054A00000F00F0004432C8106B0BDE8F087000037
:1054B0000038014001468888C0F308007047C1F3F6
:1054C00008028280704700BFFEE7490050EAC12011
:1054D00018BF04204A0D18BF40F0010040F2FF72CF
:1054E000B2EB515F08BF40F00200012808BF052061
:1054F000704700002DE9F0474FF0060A0626002508
:105500000027A8464FF0FF397448B0F800A074484F
:1055100006885FEA0A0075D0A0F56E40EE3858B3F1
:10552000A0F58850113800286DD146B96B48FDF7B9
:105530006BFA0446042C1ED02046BDE8F0874EF6D8
:10554000EE60864210D16548FDF75EFA0446042CF1
:1055500001D02046F1E700216148FDF7A3FA044697
:10556000042C08D02046E8E7FDF728F90446042C6F
:1055700001D02046E1E7AEE07EBB002522E057489F
:10558000C088584931F81510884201D10FFA85F9C1
:105590004D4515D0534931F815005349FDF7AEF983
:1055A0008046B8F1010F0BD04E4931F815004E4935
:1055B0000988FDF7D3F90746042F01D03846BCE728
:1055C000681C85B2102DDADB00214448FDF76AFA29
:1055D0000446042C02D02046AFE707E04048FDF720
:1055E00013FA0446042C1FD02046A6E74FF6FF709E
:1055F000864212D13A48FDF707FA0446042C03D03C
:1056000020469AE711E05EE000213448FDF74AFAAF
:105610000446042C08D020468FE7FDF7CFF8044657
:10562000042C01D0204688E755E036B9FDF7C6F8CE
:105630000446042C46D020467FE74FF6FF70864292
:1056400007D12748FDF7E0F90446042C3AD020465C
:1056500073E7002523E02248801D0088214931F8A6
:105660001510884201D10FFA85F94D4515D01D4915
:1056700031F815001C49FDF741F98046B8F1010FDA
:105680000BD0184931F8150017490988FDF766F95C
:105690000746042F01D038464FE7681C85B2102D0D
:1056A000D9DB00210E48FDF7FDF90446042C01D09A
:1056B000204642E70948FDF7A7F90446042C01D02B
:1056C00020463AE707E0FDF779F80446042C01D0BC
:1056D000204632E700BF00BF04202EE7000001088B
:1056E00000040108CC000020EC0000202DE9F0416E
:1056F0004F1E00EBC7010446D1E9000115461E46C6
:1057000037F006020DD02A46334600F051FE7F1EC8
:1057100004EBC703D3E9002300F042FC37F0060294
:10572000F1D1022F25D0042F13D0062F18BFBDE8CA
:10573000F0812A46334600F03BFED4E90A2300F00C
:105740002FFC2A46334600F033FED4E9082300F04C
:1057500027FC2A46334600F02BFED4E9062300F04E
:105760001FFC2A46334600F023FED4E9042300F050
:1057700017FC2A46334600F01BFED4E9022300F052
:105780000FFC2A46334600F013FED4E90023BDE89F
:10579000F04100F005BC012201F06FBC00F000BC3C
:1057A000002213461046114600F0AABC024A00200F
:1057B000110701F062BC000001FDFFFF80F31088BB
:1057C000704730380A2801D2012070470020704706
:1057D00000BF70472DE9F04D8D4F21F0004A86B093
:1057E00005460C46BA452ADBAAEB070028430AD037
:1057F0008848824501DC1AD1CDB106B02846BDE803
:10580000F04DFFF7C8BF844A844B284600F0D0FD16
:1058100007460E46824A834B2846214600F0C8FDC3
:1058200006B03A463346BDE8F04D00F0B9BB012062
:10583000FAF75EFE06B0BDE8F04DFFF7B1BF7A485B
:10584000824542DABAF1795F0BDA2846FFF73DFE6E
:10585000042808BFFFF7AAFF284606B02146BDE886
:10586000F08D2A460B46104600F0A2FD8346024604
:105870006E480E460B4606217844FFF737FF5A461E
:10588000334600F095FD804669488A465A463346BD
:1058900004217844FFF72AFF5A46334600F088FD7A
:1058A00000223B4600F07CFB02460B464046514638
:1058B00000F026FC2A46234600F07AFD06B02A4670
:1058C0002346BDE8F04D00F06BBB284624F00041B4
:1058D00000223D463B4600F069FE4FF0FF3201F0EA
:1058E000CCFB0646024653480F460B460621784439
:1058F000FFF7FCFE32463B4600F05AFDCDE90001C1
:105900004D4832463B4604217844FFF7EFFE3246CD
:105910003B4600F04DFD00222B4600F041FB834644
:1059200002913046394600F0B7FA804643480D46AA
:10593000504517DCDDE900015A46029B00F0E0FB10
:1059400042462B4600F034FD42462B4600F028FB31
:10595000012201F092FB304A304B00F019FF304A2F
:10596000304B4CE04FF0000A52460B46404600F0E8
:1059700017FBCDE9031052462B461046194600F09E
:1059800017FD32463B4600F011FEDDE9033200F020
:10599000B7FB06460F46DDE900015A46029B00F0C0
:1059A000AFFB8346009101223046394601F065FB8A
:1059B000194A1A4B00F0FAFD06460F4601224046EE
:1059C000294601F05AFB5A46009B00F0F1FC324692
:1059D0003B4600F0DDFE06460F46012250462946B2
:1059E00001F04BFB0E4DDFF858802A46434600F08D
:1059F000DDFD32463B4600F0D9FD2A46434600F025
:105A0000D5FD002CD8BF81F0004106B0BDE8F08D77
:105A10000000F03F0000F07F075C143326A6913CA5
:105A2000182D4454FB21F93F0000E03F9C18000072
:105A3000B2180000261800003C1800003333EF3F76
:105A4000FB21E93F2DE9F84F04460D4621F00040C7
:105A500000917349814211DC7249884201DC06D110
:105A60002CB120462946BDE8F84FFFF794BE6E489A
:105A7000002DCCBF6D496E49BDE8F88F6D4981425C
:105A800011DD6D498142D8BF4FF0FF366DDD2046F4
:105A90002946FFF71AFD042808BFFFF787FE2046B6
:105AA0002946BDE8F88F6549654F25F000458142DC
:105AB00033DD6449814219DD002632464FF08043D0
:105AC0002046294600F06CFA80468A46012220468C
:105AD000294601F0D2FA00223B4600F059FE424628
